:100000000C9468000C9487000C9487000C94870073
:100010000C9487000C9487000C9487000C94870044
:100020000C9487000C9487000C9487000C94870034
:100030000C9487000C9400010C9487000C948700AA
:100040000C9487000C9487000C9487000C94870014
:100050000C9487000C9487000C9487000C94870004
:100060000C9487000C9487000C9487000C948700F4
:100070000C9487000C9487000C9487000C948700E4
:100080000C9487000C9487000C948700F502FA0208
:10009000FF022403B703FE03F9033B04AD03B203DD
:1000A000400445044A04560457038203640486044A
:1000B000AA04CE04E604DA04F20434053405340557
:1000C00034053405340516052105FE040A052C0502
:1000D00011241FBECFEFD0E4DEBFCDBF11E0A0E002
:1000E000B1E0EAEBFFE000E00BBF02C007900D9229
:1000F000AA32B107D9F721E0AAE2B1E001C01D920E
:10010000AC37B207E1F70E940B060C94DB070C94A6
:100110000000CF93DF9300D01F92CDB7DEB7898365
:100120007B836A8389818A3031F48A819B81BC0117
:100130008DE00E94890080EC90E0FC018081882F96
:1001400090E080729927892BB1F386EC90E02981A9
:10015000FC01208380E090E00F900F900F90DF91E2
:10016000CF910895CF93DF93CDB7DEB781E890E0CC
:100170002BE0FC01208388E890E02DE730E0FC01D3
:10018000318320838FE690E022E0FC01208384E825
:1001900090E0FC011182108280910E0190910F017C
:1001A000A0911001B091110180932B0190932C012B
:1001B000A0932D01B0932E018FE590E02FE530E064
:1001C000F90120812068FC0120830000DF91CF919C
:1001D0000895CF93DF93CDB7DEB781E890E0FC01BF
:1001E00010820000DF91CF910895CF93DF93CDB7B8
:1001F000DEB781E080932A010000DF91CF9108955E
:100200001F920F9200905F000F92112400905B00EC
:100210000F922F933F934F935F936F937F938F939F
:100220009F93AF93BF93EF93FF93CF93DF93CDB79C
:10023000DEB780912B0190912C01A0912D01B091FE
:100240002E010197A109B10980932B0190932C01F4
:10025000A0932D01B0932E0180912B0190912C0140
:10026000A0912D01B0912E01892B8A2B8B2B91F41B
:100270000E94F50080910E0190910F01A091100154
:10028000B091110180932B0190932C01A0932D012B
:10029000B0932E010000DF91CF91FF91EF91BF91BC
:1002A000AF919F918F917F916F915F914F913F910E
:1002B0002F910F9000925B000F9000925F000F90C3
:1002C0001F901895CF93DF9300D000D0CDB7DEB745
:1002D00069837A838B839C8389819A81AB81BC817A
:1002E00080930E0190930F01A0931001B093110120
:1002F00080910E0190910F01A0911001B091110118
:1003000080932B0190932C01A0932D01B0932E018B
:1003100000000F900F900F900F90DF91CF910895F4
:10032000CF93DF9300D0CDB7DEB79A83898380E285
:1003300090E0FC0180818095837080932F018981FA
:100340009A8181309105D1F082309105D1F0892BCD
:10035000D9F480912F01813029F481E090E09A83D3
:10036000898315C080912F01823029F482E090E0CA
:100370009A8389830CC01A82198209C01A82198251
:1003800006C01A82198203C01A821982000089816C
:100390009A8181309105F9F08230910519F0892B0D
:1003A00099F137C0809114018F3169F08091140167
:1003B000880F8F5F8093140180911201880F8F5FE7
:1003C0008093120123C0809114018F31F9F48FE1E1
:1003D000809314011BC080911401883F69F08091C3
:1003E000140186958058809314018091120186959E
:1003F0008058809312010CC080911401883F41F411
:1004000088EF8093140104C0000003C0000001C005
:100410000000809113018093310180911401809339
:100420003201809112018093300189819A810F906D
:100430000F90DF91CF910895CF93DF9300D01F925B
:10044000CDB7DEB79B838A8380913C0180933401D2
:100450008091300189838A819B818130910529F1C6
:100460008230910529F1892B31F580913401833057
:1004700050F4809117019981891728F481E090E068
:100480009B838A8311C080913401833050F4809122
:1004900017019981981728F482E090E09B838A8362
:1004A00003C01B821A820AC009C01B821A8206C0BE
:1004B0001B821A8203C01B821A8200008A819B81E0
:1004C00081309105F9F08230910519F0892B99F16D
:1004D00037C0809117018F3169F080911701880F23
:1004E0008F5F8093170180911501880F8F5F809334
:1004F000150123C0809117018F31F9F48FE18093AA
:1005000017011BC080911701883F69F08091170186
:1005100086958058809317018091150186958058A3
:10052000809315010CC080911701883F41F488EF3A
:100530008093170104C0000003C0000001C0000048
:100540008091160180933D018091170180933E01B7
:1005500080911501809333018A819B810F900F90C8
:100560000F90DF91CF910895CF93DF93CDB7DEB792
:1005700028970FB6F894DEBF0FBECDBF98878F8344
:1005800080913101898380913D018A8390911E0180
:1005900080913E01892B8B8390911E0180913201C5
:1005A000892B8C8380913001809590911E01892B3D
:1005B0008D8380913301809590911E01892B8E83CC
:1005C0008F819885092E000CAA0BBB0B40E050E0F0
:1005D00020E130E0841B950B2817390708F479C116
:1005E0008A5B9F4FFC010C94D20782E090E09887D1
:1005F0008F8377C183E090E098878F8372C1909159
:100600001F018A81981741F48B818F3F29F48CE078
:1006100090E098878F8365C190911F018A81981718
:1006200029F483E090E098878F835BC180911E015D
:100630008E3F29F488E090E098878F8352C182E052
:1006400090E098878F834DC190911F018981981701
:1006500041F48C818F3F29F48DE090E098878F835F
:1006600025C090911F018981981741F48D818F3F9A
:1006700029F48EE090E098878F8318C090911F0135
:100680008981981729F482E090E098878F8329C1A7
:1006900080911E018F3729F48AE090E098878F833C
:1006A00020C183E090E098878F831BC11AC190918D
:1006B0001F018A81981741F48B818F3F29F48CE0C8
:1006C00090E098878F8308C190911F018A819817C5
:1006D00029F483E090E098878F83FEC080911E010B
:1006E0008E3F29F488E090E098878F83F5C0909141
:1006F0001F018A81981709F4EFC08EE090E0988777
:100700008F83EAC090911F018981981741F48C81F1
:100710008F3F29F48DE090E098878F83DFC0909120
:100720001F018981981729F482E090E098878F83D0
:10073000D5C080911E018F3729F48AE090E0988718
:100740008F83CCC090911F018981981709F4C6C08E
:100750008FE090E098878F83C1C084E090E0988715
:100760008F83BFC087E090E098878F83BAC0909155
:100770001F018A81981749F080911E018F3729F453
:100780008BE090E098878F8333C090911F018A811E
:10079000981729F084E090E098878F83A2C0909109
:1007A0001F018A81981741F48B818F3F29F48CE0D7
:1007B00090E098878F831CC090911F018A819817C1
:1007C00041F48E818F3F29F48FE090E098878F83EA
:1007D0000FC090911F018A81981729F485E090E05D
:1007E00098878F837EC084E090E098878F8379C05C
:1007F00078C082E090E098878F8373C090911F014A
:100800008981981749F080911E018E3F29F489E073
:1008100090E098878F832EC090911F01898198174F
:1008200029F085E090E098878F835AC090911F014E
:100830008981981741F48C818F3F29F48DE090E0F5
:1008400098878F8317C090911F018981981741F471
:100850008D818F3F29F48EE090E098878F830AC0C6
:1008600090911F0189819817D9F584E090E09887CD
:100870008F8336C035C083E090E098878F8331C086
:1008800085E090E098878F832CC086E090E0988781
:100890008F8327C080913701833018F418861F8218
:1008A00020C080E190E098878F831BC08091380141
:1008B000833028F481E090E098878F8312C080E134
:1008C00090E098878F830DC080E190E098878F83B8
:1008D00008C018861F8205C0000003C0000001C0C8
:1008E00000008F819885092E000CAA0BBB0B40E0FD
:1008F00050E020E130E0841B950B2817390708F4FD
:10090000B1C0895A9F4FFC010C94D20780E48093B8
:100910001F0180913501823068F080913501882F68
:1009200090E0885E9E4FFC01808180931E011092B2
:1009300035019BC080913501882F90E0885E9E4FE5
:10094000FC01808180931E01809135018F5F80932F
:1009500035018BC082E080931F0180913601823087
:1009600068F080913601882F90E0855E9E4FFC01F3
:10097000808180931E011092360177C080913601EC
:10098000882F90E0855E9E4FFC01808180931E0140
:10099000809136018F5F8093360167C080911E0180
:1009A0008695805880931E0180911F0186958093C3
:1009B0001F015BC080911E01880F8F5F80931E0115
:1009C00080911F01869580931F014FC080911F0168
:1009D000880F80931F0180911E01880F8F5F809385
:1009E0001E0143C080911F01880F80931F018091D9
:1009F0001E018695805880931E0137C080911F018B
:100A0000869580931F0180911E0186958058809362
:100A10001E012BC080911F01880F80931F018091C0
:100A20001E01880F8F5F80931E011FC080913701C8
:100A30008F5F809337018FE080931F0110921E011A
:100A400014C0809138018F5F8093380180EF8093CC
:100A50001F0110921E0109C08FEF80931F01109299
:100A60001E0103C0000001C0000080911F0180939F
:100A70003C0180911E0180933F018F8198852896CB
:100A80000FB6F894DEBF0FBECDBFDF91CF910895B2
:100A9000CF93DF93CDB7DEB728970FB6F894DEBFBC
:100AA0000FBECDBF98878F8380913C018983809151
:100AB0003D018A83809131018B8380913F018C833A
:100AC00080913E018D83809132018E838F81988544
:100AD000009719F0019731F00AC081E090E0988703
:100AE0008F8308C081E090E098878F8303C01886C9
:100AF0001F8200008F819885019709F049C080917D
:100B00003901823008F188E290E020913901222FEA
:100B100030E0AE014F5F5F4F240F351FF901208198
:100B2000FC0120838BE290E020913901222F30E0FC
:100B3000AE014C5F5F4F240F351FF9012081FC018E
:100B400020831092390123C088E290E0209139017E
:100B5000222F30E0AE014F5F5F4F240F351FF901A8
:100B60002081FC0120838BE290E020913901222F2B
:100B700030E0AE014C5F5F4F240F351FF90120813B
:100B8000FC012083809139018F5F8093390100003F
:100B90008F81988528960FB6F894DEBF0FBECDBF23
:100BA000DF91CF910895CF93DF9300D000D0CDB7E0
:100BB000DEB79C838B8380913701898380913801D4
:100BC0008A838B819C81892B19F41C821B8203C030
:100BD0001C821B8200008B819C81892B09F009C03B
:100BE000898180933A018A81880F880F80933B0125
:100BF000000085E290E030913A0120913B01232BE7
:100C0000FC0120838B819C810F900F900F900F909F
:100C1000DF91CF9108950F931F93CF93DF93CDB7BB
:100C2000DEB72F970FB6F894DEBF0FBECDBF81E2BF
:100C300090E0FC01108287E290E02FEFFC0120831E
:100C40008AE290E02FEFFC01208384E290E02FEF16
:100C5000FC01208382E290E02FEFFC01208385E2FB
:100C600090E02FEFFC01208388E290E0FC011082ED
:100C70008BE290E0FC0110828AE0E0E2F1E0DE012C
:100C8000169601900D928A95E1F785E090E09C839D
:100C90008B838FEF8D838D81082E000C990B9093A1
:100CA00041018093400184E690E0A0E0B0E08093B1
:100CB000420190934301A0934401B0934501809178
:100CC000420190914301A0914401B091450180936C
:100CD000460190934701A0934801B093490180E9F0
:100CE00091E090934B0180934A018D81082E000C76
:100CF000990B90934D0180934C0184E690E0A0E025
:100D0000B0E080934E0190934F01A0935001B093B7
:100D1000510180915A0190915B01A0915C01B091C9
:100D20005D018093520190935301A0935401B093BD
:100D300055018CE192E090935701809356018D818B
:100D4000082E000C990B909359018093580186E965
:100D500090E0A0E0B0E080935A0190935B01A093F3
:100D60005C01B0935D0180914E0190914F01A09183
:100D70005001B091510180935E0190935F01A09367
:100D80006001B093610184EB92E0909363018093E2
:100D900062018D81082E000C990B90936501809360
:100DA000640181E090E0A0E0B0E080936601909360
:100DB0006701A0936801B0936901809166019091E9
:100DC0006701A0916801B091690180936A019093D5
:100DD0006B01A0936C01B0936D0188E495E0909352
:100DE0006F0180936E018D81082E000C990B9093FA
:100DF00071018093700181E090E0A0E0B0E0809309
:100E0000720190937301A0937401B0937501809166
:100E1000660190916701A0916801B091690180938A
:100E2000760190937701A0937801B093790183EDD7
:100E300095E090937B0180937A0161E070E080E01F
:100E400090E00E9462010E94B2001A8219829AC048
:100E500089819A81880F991F9E012F5F3F4F820FD2
:100E6000931F0596FC0180819181FC0126813781C9
:100E70004085518589819A81880F991FBE016F5FD6
:100E80007F4F860F971F0596FC0180819181FC01A1
:100E900082819381A481B581281739074A075B07AE
:100EA00009F044C089819A81880F991F9E012F5FA4
:100EB0003F4F820F931F0596FC01008111818981AC
:100EC0009A81880F991F9E012F5F3F4F820F931FBA
:100ED0000596FC0180819181FC0122853385898101
:100EE0009A81880F991FAE014F5F5F4F840F951F46
:100EF0000596FC0180819181FC0180819181F9013D
:100F00000995F8019183808389819A81880F991FBF
:100F10009E012F5F3F4F820F931F0596FC0180813A
:100F20009181FC01168217821086118689819A812F
:100F3000880F991F9E012F5F3F4F820F931F0596C9
:100F4000FC012081318189819A81880F991FAE012E
:100F50004F5F5F4F840F951F0596FC018081918143
:100F6000FC0186819781A085B1850196A11DB11DE7
:100F7000F90186839783A087B18789819A81019639
:100F80009A83898329813A818B819C81281739072B
:100F900008F45ECF000080912A018823E1F31092CB
:100FA0002A0153CFEE0FFF1F0024001C0BBE079039
:0A0FB000F691E02D0994F894FFCFAC
:100FBA00000000020000000089000000000001009B
:100FCA000000F780E3EF01C7EFF7FBEFF7FBEF4015
:0A0FDA00400158014C016401700150
:00000001FF
