:100000000C945C000C947B000C947B000C947B00A3
:100010000C947B000C947B000C947B000C947B0074
:100020000C947B000C947B000C947B000C947B0064
:100030000C947B000C94F4000C947B000C947B00DB
:100040000C947B000C947B000C947B000C947B0044
:100050000C947B000C947B000C947B000C947B0034
:100060000C947B000C947B000C947B000C947B0024
:100070000C947B000C947B000C947B000C947B0014
:100080000C947B000C947B000C947B00AA02AF02C2
:10009000B402D90203032903FE024F03540364038D
:1000A00076039303B703DB03F303E703FF031E04A5
:1000B0001E040B041004160411241FBECFEFD0E45D
:1000C000DEBFCDBF11E0A0E0B1E0E8E6FDE000E07A
:1000D0000BBF02C007900D92A832B107D9F721E0FB
:1000E000A8E2B1E001C01D92A637B207E1F70E9475
:1000F000EC040C94B2060C940000CF93DF9300D074
:100100001F92CDB7DEB789837B836A8389818A306A
:1001100031F48A819B81BC018DE00E947D0080ECDE
:1001200090E0FC018081882F90E080729927892BD4
:10013000B1F386EC90E02981FC01208380E090E01F
:100140000F900F900F90DF91CF910895CF93DF9391
:10015000CDB7DEB781E890E02BE0FC01208388E892
:1001600090E02DE730E0FC01318320838FE690E0C2
:1001700022E0FC01208384E890E0FC0111821082DF
:1001800080910E0190910F01A0911001B091110189
:100190008093290190932A01A0932B01B0932C0105
:1001A0008FE590E02FE530E0F90120812068FC0127
:1001B00020830000DF91CF910895CF93DF93CDB7D7
:1001C000DEB781E890E0FC0110820000DF91CF9162
:1001D0000895CF93DF93CDB7DEB781E080932801F8
:1001E0000000DF91CF9108951F920F9200905F0061
:1001F0000F92112400905B000F922F933F934F9327
:100200005F936F937F938F939F93AF93BF93EF937E
:10021000FF93CF93DF93CDB7DEB780912901909103
:100220002A01A0912B01B0912C010197A109B109DC
:100230008093290190932A01A0932B01B0932C0164
:100240008091290190912A01A0912B01B0912C015C
:10025000892B8A2B8B2B91F40E94E90080910E014F
:1002600090910F01A0911001B0911101809329018B
:1002700090932A01A0932B01B0932C010000DF91F1
:10028000CF91FF91EF91BF91AF919F918F917F910E
:100290006F915F914F913F912F910F9000925B0072
:1002A0000F9000925F000F901F901895CF93DF93EF
:1002B00000D000D0CDB7DEB769837A838B839C836F
:1002C00089819A81AB81BC8180930E0190930F014B
:1002D000A0931001B093110180910E0190910F0134
:1002E000A0911001B09111018093290190932A01EE
:1002F000A0932B01B0932C0100000F900F900F9052
:100300000F90DF91CF910895CF93DF9300D0CDB7B9
:10031000DEB79A83898380E290E0FC01808180953A
:1003200080932D0189819A8181309105D1F08230AD
:100330009105D1F0892BD9F480912D01813029F4D8
:1003400081E090E09A83898315C080912D018230ED
:1003500029F482E090E09A8389830CC01A82198282
:1003600009C01A82198206C01A82198203C01A8231
:100370001982000089819A8181309105C9F082300B
:10038000910519F0892B39F12BC0809113018F3120
:1003900039F080911301880F8F5F809313011DC086
:1003A000809113018F31C9F48FE18093130115C03F
:1003B00080911301883F39F0809113018695805810
:1003C000809313010CC080911301883F41F488EFA2
:1003D0008093130104C0000003C0000001C00000AE
:1003E0008091120180932E018091130180932F013F
:1003F00089819A810F900F90DF91CF910895CF93CB
:10040000DF9300D0CDB7DEB79A83898380E290E096
:10041000FC018081809580932D0189819A818130B2
:100420009105D1F082309105D1F0892BD9F48091DA
:100430002D01843029F481E090E09A83898315C0EE
:1004400080912D01883029F482E090E09A8389839D
:100450000CC01A82198209C01A82198206C01A8237
:10046000198203C01A821982000089819A81813021
:100470009105C9F08230910519F0892B39F12BC013
:10048000809115018F3139F080911501880F8F5FB0
:10049000809315011DC0809115018F31C9F48FE142
:1004A0008093150115C080911501883F39F0809126
:1004B000150186958058809315010CC08091150117
:1004C000883F41F488EF8093150104C0000003C009
:1004D000000001C0000080911401809336018091DA
:1004E00015018093370189819A810F900F90DF91D8
:1004F000CF910895CF93DF9300D000D000D0CDB737
:10050000DEB79E838D8380912E0189838091360191
:100510008A8390911C0180913701892B8B83909164
:100520001C0180912F01892B8C838D819E81092E46
:10053000000CAA0BBB0B40E050E02AE030E0841B2B
:10054000950B2817390708F4D6C08A5B9F4FFC012A
:100550000C94A90682E090E09E838D83CFC083E057
:1005600090E09E838D83CAC090911D018A81981767
:1005700041F48B818F3F29F488E090E09E838D8346
:10058000BDC090911D018A81981729F483E090E005
:100590009E838D83B3C080911C018E3F29F486E039
:1005A00090E09E838D83AAC082E090E09E838D833D
:1005B000A5C090911D018981981741F48C818F3FCE
:1005C00029F489E090E09E838D8398C090911D016D
:1005D0008981981729F482E090E09E838D838EC0F4
:1005E00080911C018F3729F487E090E09E838D83F2
:1005F00085C083E090E09E838D8380C084E090E09E
:100600009E838D837BC090911D018A81981729F06C
:1006100084E090E09E838D8371C090911D018A815A
:10062000981741F48B818F3F29F488E090E09E83F6
:100630008D8364C090911D018A81981729F483E00D
:1006400090E09E838D835AC082E090E09E838D83EC
:1006500055C090911D018981981729F085E090E09F
:100660009E838D834BC090911D018981981741F421
:100670008C818F3F29F489E090E09E838D833EC07A
:1006800090911D018981981729F482E090E09E8362
:100690008D8334C083E090E09E838D832FC085E0FE
:1006A00090E09E838D832AC080913201873020F0B4
:1006B00080913301873018F41E821D821FC08AE0AA
:1006C00090E09E838D831AC080913201873020F0A4
:1006D00080913301873028F481E090E09E838D8300
:1006E0000DC08AE090E09E838D8308C08AE090E090
:1006F0009E838D8303C01E821D8200008D819E819A
:10070000092E000CAA0BBB0B40E050E02AE030E0C1
:10071000841B950B2817390708F48EC08F5A9F4FFA
:10072000FC010C94A90680E480931D0180913001A6
:10073000823068F080913001882F90E08A5E9E4F71
:10074000FC01808180931C011092300178C080915F
:100750003001882F90E08A5E9E4FFC01808180935B
:100760001C01809130018F5F8093300168C082E06E
:1007700080931D0180913101823068F080913101B8
:10078000882F90E0875E9E4FFC01808180931C0142
:100790001092310154C080913101882F90E0875E22
:1007A0009E4FFC01808180931C01809131018F5FFD
:1007B0008093310144C080911C01869580588093BC
:1007C0001C0180911D01869580931D0138C0809188
:1007D0001C01880F8F5F80931C0180911D018695FD
:1007E00080931D012CC080911D01880F80931D01F5
:1007F00080911C01880F8F5F80931C0120C0809125
:100800001D01880F80931D0180911C0186958058E1
:1008100080931C0114C0809132018F5F809332015C
:10082000809133018F5F8093330109C08FEF8093F4
:100830001D0110921C0103C0000001C00000809146
:100840001D018093380180911C01809339018D81B5
:100850009E8126960FB6F894DEBF0FBECDBFDF9106
:10086000CF910895CF93DF93CDB7DEB728970FB61A
:10087000F894DEBF0FBECDBF98878F83809138017B
:100880008983809136018A8380912E018B838091A8
:1008900039018C83809137018D8380912F018E8364
:1008A0008F819885009719F0019731F00AC081E097
:1008B00090E098878F8308C081E090E098878F83CD
:1008C00003C018861F8200008F819885019709F068
:1008D00049C080913401823008F188E290E0209193
:1008E0003401222F30E0AE014F5F5F4F240F351FE0
:1008F000F9012081FC0120838BE290E020913401FA
:10090000222F30E0AE014C5F5F4F240F351FF901FD
:100910002081FC0120831092340123C088E290E002
:1009200020913401222F30E0AE014F5F5F4F240F42
:10093000351FF9012081FC0120838BE290E020919A
:100940003401222F30E0AE014C5F5F4F240F351F82
:10095000F9012081FC012083809134018F5F809315
:10096000340100008F81988528960FB6F894DEBF79
:100970000FBECDBFDF91CF910895CF93DF9300D00D
:10098000CDB7DEB79A83898383E290E0FC01808152
:1009900080958093350189819A81892B19F41A8277
:1009A000198203C01A821982000089819A81892BD9
:1009B00009F005C08091320180933501000085E285
:1009C00090E020913501FC01208389819A810F906C
:1009D0000F90DF91CF9108950F931F93CF93DF93E3
:1009E000CDB7DEB72F970FB6F894DEBF0FBECDBFE1
:1009F00081E290E0FC01108287E290E02FEFFC01A1
:100A000020838AE290E02FEFFC01208382E290E0D5
:100A10002FEFFC01208388E290E0FC0110828BE242
:100A200090E0FC0110828AE0EEE1F1E0DE01169632
:100A300001900D928A95E1F785E090E09C838B838D
:100A40008FEF8D838D81082E000C990B90933B01C5
:100A500080933A0184E690E0A0E0B0E080933C010E
:100A600090933D01A0933E01B0933F0180913C01E2
:100A700090913D01A0913E01B0913F0180934001D2
:100A800090934101A0934201B093430184E891E027
:100A900090934501809344018D81082E000C990BA1
:100AA000909347018093460184E690E0A0E0B0E097
:100AB0008093480190934901A0934A01B0934B0160
:100AC0008091480190914901A0914A01B0914B0158
:100AD00080934C0190934D01A0934E01B0934F0130
:100AE0008FEF91E090935101809350018D81082EFA
:100AF000000C990B909353018093520180E590E094
:100B0000A0E0B0E08093540190935501A09356016A
:100B1000B09357018091540190915501A0915601D5
:100B2000B09157018093580190935901A0935A01B5
:100B3000B0935B018AE792E090935D0180935C0142
:100B40008D81082E000C990B90935F0180935E01BC
:100B500081E090E0A0E0B0E08093600190936101BB
:100B6000A0936201B0936301809160019091610153
:100B7000A0916201B091630180936401909365013B
:100B8000A0936601B093670182E394E090936901BA
:100B9000809368018D81082E000C990B90936B0156
:100BA00080936A0181E090E0A0E0B0E080936C0166
:100BB00090936D01A0936E01B0936F0180916001DD
:100BC00090916101A0916201B091630180937001E5
:100BD00090937101A0937201B09373018DEB94E037
:100BE000909375018093740161E070E080E090E083
:100BF0000E9456010E94A6001A8219829AC0898119
:100C00009A81880F991F9E012F5F3F4F820F931F7C
:100C10000596FC0180819181FC0126813781408508
:100C2000518589819A81880F991FBE016F5F7F4F1F
:100C3000860F971F0596FC0180819181FC018281BE
:100C40009381A481B581281739074A075B0709F00A
:100C500044C089819A81880F991F9E012F5F3F4F61
:100C6000820F931F0596FC010081118189819A8171
:100C7000880F991F9E012F5F3F4F820F931F05968C
:100C8000FC0180819181FC012285338589819A81D3
:100C9000880F991FAE014F5F5F4F840F951F059618
:100CA000FC0180819181FC0180819181F90109958C
:100CB000F8019183808389819A81880F991F9E0111
:100CC0002F5F3F4F820F931F0596FC01808191811A
:100CD000FC01168217821086118689819A81880FFD
:100CE000991F9E012F5F3F4F820F931F0596FC01B6
:100CF0002081318189819A81880F991FAE014F5FD0
:100D00005F4F840F951F0596FC0180819181FC0146
:100D100086819781A085B1850196A11DB11DF9013C
:100D200086839783A087B18789819A8101969A8368
:100D3000898329813A818B819C812817390708F49E
:100D40005ECF0000809128018823E1F310922801F2
:100D500053CFEE0FFF1F0024001C0BBE0790F6912F
:080D6000E02D0994F894FFCF87
:100D680000000002000000007D00000000000100FB
:100D7800000080E301C7EFF7FBEFF7FBEF403A0114
:080D8800460152015E016A01FF
:00000001FF
