:100000000C9458000C9477000C9477000C947700B3
:100010000C9477000C9477000C9477000C94770084
:100020000C9477000C9477000C9477000C94770074
:100030000C9477000C94F0000C9477000C947700EB
:100040000C9477000C9477000C9477000C94770054
:100050000C9477000C9477000C9477000C94770044
:100060000C9477000C9477000C9477000C94770034
:100070000C9477000C9477000C9477000C94770024
:100080000C9477000C9477000C947700A602AB02D6
:10009000D002FA022003F50246034B034E03690324
:1000A000700388037C039403AD03AD03A003A50391
:1000B00011241FBECFEFD0E4DEBFCDBF11E0A0E022
:1000C000B1E0E6E8FCE000E00BBF02C007900D9253
:1000D000A232B107D9F721E0A2E2B1E001C01D923E
:1000E000AE36B207E1F70E947B040C9441060C94F3
:1000F0000000CF93DF9300D01F92CDB7DEB7898386
:100100007B836A8389818A3031F48A819B81BC0137
:100110008DE00E94790080EC90E0FC018081882FC6
:1001200090E080729927892BB1F386EC90E02981C9
:10013000FC01208380E090E00F900F900F90DF9102
:10014000CF910895CF93DF93CDB7DEB781E890E0EC
:100150002BE0FC01208388E890E02DE730E0FC01F3
:10016000318320838FE690E022E0FC01208384E845
:1001700090E0FC011182108280910E0190910F019C
:10018000A0911001B091110180932301909324015B
:10019000A0932501B09326018FE590E02FE530E094
:1001A000F90120812068FC0120830000DF91CF91BC
:1001B0000895CF93DF93CDB7DEB781E890E0FC01DF
:1001C00010820000DF91CF910895CF93DF93CDB7D8
:1001D000DEB781E0809322010000DF91CF91089586
:1001E0001F920F9200905F000F92112400905B000D
:1001F0000F922F933F934F935F936F937F938F93C0
:100200009F93AF93BF93EF93FF93CF93DF93CDB7BC
:10021000DEB78091230190912401A0912501B09136
:1002200026010197A109B10980932301909324012C
:10023000A0932501B0932601809123019091240180
:10024000A0912501B0912601892B8A2B8B2B91F44B
:100250000E94E50080910E0190910F01A091100184
:10026000B09111018093230190932401A093250163
:10027000B09326010000DF91CF91FF91EF91BF91E4
:10028000AF919F918F917F916F915F914F913F912E
:100290002F910F9000925B000F9000925F000F90E3
:1002A0001F901895CF93DF9300D000D0CDB7DEB765
:1002B00069837A838B839C8389819A81AB81BC819A
:1002C00080930E0190930F01A0931001B093110140
:1002D00080910E0190910F01A0911001B091110138
:1002E0008093230190932401A0932501B0932601CC
:1002F00000000F900F900F900F90DF91CF91089515
:10030000CF93DF9300D0CDB7DEB79A83898380E2A5
:1003100090E0FC01808180958093270189819A81FA
:1003200081309105D1F082309105D1F0892BD9F43B
:1003300080912701813029F481E090E09A838983BC
:1003400015C080912701823029F482E090E09A83E1
:1003500089830CC01A82198209C01A82198206C0C8
:100360001A82198203C01A821982000089819A8137
:1003700081309105C9F08230910519F0892B39F14E
:100380002BC0809113018F3039F080911301880FB9
:100390008F5F809313011DC0809113018F30C9F4CA
:1003A0008FE08093130115C080911301803F39F0D5
:1003B0008091130186958058809313010CC0809121
:1003C0001301803F41F480EF8093130104C00000CB
:1003D00003C0000001C00000809112018093280139
:1003E000809113018093290189819A810F900F9048
:1003F000DF91CF910895CF93DF9300D0CDB7DEB7D3
:100400009A83898380E290E0FC01808180958093CB
:10041000270189819A8181309105D1F0823091053F
:10042000D1F0892BD9F480912701843029F481E01F
:1004300090E09A83898315C080912701883029F440
:1004400082E090E09A8389830CC01A82198209C0E5
:100450001A82198206C01A82198203C01A8219826E
:10046000000089819A8181309105C9F0823091051F
:1004700019F0892B39F12BC0809115018F3039F09B
:1004800080911501880F8F5F809315011DC08091A9
:1004900015018F30C9F48FE08093150115C080914C
:1004A0001501803F39F08091150186958058809321
:1004B00015010CC080911501803F41F480EF8093BD
:1004C000150104C0000003C0000001C000008091BD
:1004D000140180932E018091150180932F01898151
:1004E0009A810F900F90DF91CF910895CF93DF9372
:1004F00000D000D000D0CDB7DEB79E838D83809131
:100500002801898380912E018A8390911601809120
:100510002F01892B8B839091160180912901892BC2
:100520008C838D819E81092E000CAA0BBB0B40E0B1
:1005300050E028E030E0841B950B2817390708F4B9
:10054000B0C08A5B9F4FFC010C94380681E090E0BC
:100550009E838D83A9C0909117018A81981741F4D9
:100560008B818F3F29F487E090E09E838D839CC030
:10057000909117018A81981729F482E090E09E8378
:100580008D8392C0809116018E3F29F485E090E022
:100590009E838D8389C081E090E09E838D8384C09B
:1005A000909117018981981741F48C818F3F29F42C
:1005B00088E090E09E838D8377C0909117018981B8
:1005C000981729F481E090E09E838D836DC080911F
:1005D00016018F3729F486E090E09E838D8364C0F6
:1005E00082E090E09E838D835FC083E090E09E83F5
:1005F0008D835AC0909117018A81981729F083E062
:1006000090E09E838D8350C0909117018A81981746
:1006100041F48B818F3F29F487E090E09E838D83A6
:1006200043C0909117018A81981729F482E090E0E5
:100630009E838D8339C081E090E09E838D8334C09A
:10064000909117018981981729F084E090E09E83AA
:100650008D832AC0909117018981981741F48C816C
:100660008F3F29F488E090E09E838D831DC0909198
:1006700017018981981729F481E090E09E838D838A
:1006800013C082E090E09E838D830EC084E090E0F2
:100690009E838D8309C01E821D8206C01E821D821C
:1006A00003C01E821D8200008D819E81092E000CD8
:1006B000AA0BBB0B40E050E028E030E0841B950B18
:1006C0002817390708F447C0815B9F4FFC010C9441
:1006D000380680E4809317018FEE809316013EC0A8
:1006E000809116018695805880931601809117019C
:1006F00086958093170132C080911601880F8F5F15
:10070000809316018091170186958093170126C06A
:1007100080911701880F8093170180911601880F2F
:100720008F5F809316011AC080911701880F809304
:1007300017018091160186958058809316010EC08E
:1007400080912A018F5F80932A0180912B018F5F16
:1007500080932B0103C0000001C0000080911701AD
:100760008093300180911601809331018D819E81AB
:1007700026960FB6F894DEBF0FBECDBFDF91CF91A6
:100780000895CF93DF93CDB7DEB728970FB6F894CF
:10079000DEBF0FBECDBF98878F83809130018983E4
:1007A00080912E018A83809128018B838091310171
:1007B0008C8380912F018D83809129018E838F817D
:1007C0009885009719F0019731F00AC081E090E018
:1007D00098878F8308C081E090E098878F8303C05B
:1007E00018861F8200008F819885019709F049C003
:1007F00080912C01823008F188E290E020912C0158
:10080000222F30E0AE014F5F5F4F240F351FF901FB
:100810002081FC0120838BE290E020912C01222F8B
:1008200030E0AE014C5F5F4F240F351FF90120818E
:10083000FC01208310922C0123C088E290E02091DB
:100840002C01222F30E0AE014F5F5F4F240F351F88
:10085000F9012081FC0120838BE290E020912C01A2
:10086000222F30E0AE014C5F5F4F240F351FF9019E
:100870002081FC01208380912C018F5F80932C01CB
:1008800000008F81988528960FB6F894DEBF0FBEC2
:10089000CDBFDF91CF910895CF93DF9300D0CDB737
:1008A000DEB79A83898383E290E0FC0180818095A2
:1008B00080932D0189819A81892B19F41A821982DA
:1008C00003C01A821982000089819A81892B09F05C
:1008D00005C080912A0180932D01000085E290E0FF
:1008E00020912D01FC01208389819A810F900F9026
:1008F000DF91CF9108950F931F93CF93DF93CDB7DF
:10090000DEB72F970FB6F894DEBF0FBECDBF81E2E2
:1009100090E0FC01108287E290E02FEFFC01208341
:100920008AE290E02FEFFC01208382E290E02FEF3B
:10093000FC01208388E290E0FC0110828BE290E0D1
:10094000FC0110828AE0E8E1F1E0DE0116960190F8
:100950000D928A95E1F785E090E09C838B838FEF81
:100960008D838D81082E000C990B90933301809319
:10097000320184E690E0A0E0B0E0809334019093EF
:100980003501A0933601B0933701809134019091E5
:100990003501A0913601B0913701809338019093D1
:1009A0003901A0933A01B0933B0180E891E0909324
:1009B0003D0180933C018D81082E000C990B909392
:1009C0003F0180933E0184E690E0A0E0B0E0809398
:1009D000400190934101A0934201B0934301809163
:1009E000400190914101A0914201B0914301809357
:1009F000440190934501A0934601B09347018BEFCA
:100A000091E090934901809348018D81082E000C5C
:100A1000990B90934B0180934A0186E990E0A0E006
:100A2000B0E080934C0190934D01A0934E01B093A0
:100A30004F0180914C0190914D01A0914E01B091D8
:100A40004F018093500190935101A0935201B093B4
:100A5000530186E792E090935501809354018D8174
:100A6000082E000C990B909357018093560181E05A
:100A700090E0A0E0B0E08093580190935901A093DA
:100A80005A01B0935B018091580190915901A09156
:100A90005A01B0915B0180935C0190935D01A0933A
:100AA0005E01B0935F0181EC93E0909361018093CC
:100AB00060018D81082E000C990B90936301809347
:100AC000620181E090E0A0E0B0E080936401909347
:100AD0006501A0936601B0936701809158019091E0
:100AE0005901A0915A01B0915B01809368019093E4
:100AF0006901A0936A01B0936B018CE494E0909338
:100B00006D0180936C0161E070E080E090E00E94F4
:100B100052010E94A2001A8219829AC089819A8188
:100B2000880F991F9E012F5F3F4F820F931F0596DD
:100B3000FC0180819181FC012681378140855185AE
:100B400089819A81880F991FBE016F5F7F4F860F41
:100B5000971F0596FC0180819181FC018281938120
:100B6000A481B581281739074A075B0709F044C0FB
:100B700089819A81880F991F9E012F5F3F4F820FB5
:100B8000931F0596FC010081118189819A81880F4C
:100B9000991F9E012F5F3F4F820F931F0596FC0107
:100BA00080819181FC012285338589819A81880F1A
:100BB000991FAE014F5F5F4F840F951F0596FC0193
:100BC00080819181FC0180819181F9010995F80171
:100BD0009183808389819A81880F991F9E012F5F5D
:100BE0003F4F820F931F0596FC0180819181FC018C
:100BF000168217821086118689819A81880F991F23
:100C00009E012F5F3F4F820F931F0596FC012081AD
:100C1000318189819A81880F991FAE014F5F5F4FA3
:100C2000840F951F0596FC0180819181FC018681CE
:100C30009781A085B1850196A11DB11DF90186831B
:100C40009783A087B18789819A8101969A83898346
:100C500029813A818B819C812817390708F45ECF5E
:100C60000000809122018823E1F31092220153CFEA
:100C7000EE0FFF1F0024001C0BBE0790F691E02D25
:060C80000994F894FFCF77
:100C860000000002000000007900000000000100E2
:100C9600000080C301C3EF4032013E014A01560104
:020CA6006201E9
:00000001FF
