:100000000C945E000C947D000C947D000C947D009B
:100010000C947D000C947D000C947D000C947D006C
:100020000C947D000C947D000C947D000C947D005C
:100030000C947D000C94F6000C947D000C947D00D3
:100040000C947D000C947D000C947D000C947D003C
:100050000C947D000C947D000C947D000C947D002C
:100060000C947D000C947D000C947D000C947D001C
:100070000C947D000C947D000C947D000C947D000C
:100080000C947D000C947D000C947D00C602CB0284
:10009000D002F502520378034D03AC03B103BD0354
:1000A0002B03CB03E9030D04310449043D0455043B
:1000B000840484046704710461047C0411241FBE59
:1000C000CFEFD0E4DEBFCDBF11E0A0E0B1E0EEE3C2
:1000D000FEE000E00BBF02C007900D92AA32B1070C
:1000E000D9F721E0AAE2B1E001C01D92AA37B20718
:1000F000E1F70E944D050C941D070C940000CF936E
:10010000DF9300D01F92CDB7DEB789837B836A83EC
:1001100089818A3031F48A819B81BC018DE00E9403
:100120007F0080EC90E0FC018081882F90E080725D
:100130009927892BB1F386EC90E02981FC0120837B
:1001400080E090E00F900F900F90DF91CF91089595
:10015000CF93DF93CDB7DEB781E890E02BE0FC01D1
:10016000208388E890E02DE730E0FC013183208394
:100170008FE690E022E0FC01208384E890E0FC011F
:100180001182108280910E0190910F01A0911001B7
:10019000B091110180932B0190932C01A0932D011C
:1001A000B0932E018FE590E02FE530E0F90120813A
:1001B0002068FC0120830000DF91CF910895CF9348
:1001C000DF93CDB7DEB781E890E0FC01108200003C
:1001D000DF91CF910895CF93DF93CDB7DEB781E064
:1001E00080932A010000DF91CF9108951F920F9212
:1001F00000905F000F92112400905B000F922F93EC
:100200003F934F935F936F937F938F939F93AF939E
:10021000BF93EF93FF93CF93DF93CDB7DEB780917A
:100220002B0190912C01A0912D01B0912E010197ED
:10023000A109B10980932B0190932C01A0932D016A
:10024000B0932E0180912B0190912C01A0912D0152
:10025000B0912E01892B8A2B8B2B91F40E94EB00FD
:1002600080910E0190910F01A0911001B0911101A8
:1002700080932B0190932C01A0932D01B0932E011C
:100280000000DF91CF91FF91EF91BF91AF919F91CE
:100290008F917F916F915F914F913F912F910F902F
:1002A00000925B000F9000925F000F901F901895D6
:1002B000CF93DF9300D000D0CDB7DEB769837A83C8
:1002C0008B839C8389819A81AB81BC8180930E0151
:1002D00090930F01A0931001B093110180910E0132
:1002E00090910F01A0911001B091110180932B0109
:1002F00090932C01A0932D01B0932E0100000F903C
:100300000F900F900F90DF91CF910895CF93DF93CF
:1003100000D0CDB7DEB79A83898380E290E0FC01FC
:100320008081809580932F0189819A818130910508
:10033000D1F082309105D1F0892BD9F480912F0131
:10034000813029F481E090E09A83898315C08091FF
:100350002F01823029F482E090E09A8389830CC0D7
:100360001A82198209C01A82198206C01A82198259
:1003700003C01A821982000089819A818130910517
:10038000F9F08230910519F0892B99F137C08091ED
:1003900014018F3169F080911401880F8F5F809371
:1003A000140180911201880F8F5F8093120123C086
:1003B000809114018F31F9F48FE1809314011BC0F7
:1003C00080911401883F69F08091140186958058CE
:1003D00080931401809112018695805880931201B8
:1003E0000CC080911401883F41F488EF8093140180
:1003F00004C0000003C0000001C000008091130190
:100400008093310180911401809332018091120117
:100410008093300189819A810F900F90DF91CF9165
:100420000895CF93DF9300D0CDB7DEB79A83898349
:1004300080E290E0FC018081809580932F0189818A
:100440009A8181309105D1F082309105D1F0892BCC
:10045000D9F480912F01843029F481E090E09A83CF
:10046000898315C080912F01883029F482E090E0C3
:100470009A8389830CC01A82198209C01A82198250
:1004800006C01A82198203C01A821982000089816B
:100490009A8181309105C9F08230910519F0892B3C
:1004A00039F12BC0809116018F3139F080911601FE
:1004B000880F8F5F809316011DC0809116018F31C8
:1004C000C9F48FE18093160115C080911601883F11
:1004D00039F08091160186958058809316010CC0E2
:1004E00080911601883F41F488EF8093160104C083
:1004F000000003C0000001C000008091150180933E
:100500003A018091160180933B0189819A810F9075
:100510000F90DF91CF910895CF93DF93CDB7DEB7E2
:1005200027970FB6F894DEBF0FBECDBF9F838E8393
:1005300080913101898380913A018A8390911D01D4
:1005400080913B01892B8B8390911D018091320119
:10055000892B8C8380913001809590911D01892B8E
:100560008D838E819F81092E000CAA0BBB0B40E06E
:1005700050E02BE030E0841B950B2817390708F476
:100580000FC18A5B9F4FFC010C94140782E090E03E
:100590009F838E8309C183E090E09F838E8304C193
:1005A00090911E018A81981741F48B818F3F29F425
:1005B00088E090E09F838E83F7C090911E018A812E
:1005C000981729F483E090E09F838E83EDC080919B
:1005D0001D018E3F29F486E090E09F838E83E4C066
:1005E00082E090E09F838E83DFC090911E0189811D
:1005F000981741F48C818F3F29F489E090E09F8324
:100600008E8328C090911E018981981741F48D81B5
:100610008F3F29F48AE090E09F838E831BC09091E6
:100620001E018981981741F48D818F3F29F082E066
:1006300090E09F838E830EC080911D018F3729F437
:1006400087E090E09F838E83AFC083E090E09F833C
:100650008E83AAC0A9C090911E018A81981741F487
:100660008B818F3F29F488E090E09F838E839BC02D
:1006700090911E018A81981729F483E090E09F836E
:100680008E8391C090911E018A81981709F48BC0C6
:100690008AE090E09F838E8386C084E090E09F8311
:1006A0008E8382C090911E018A81981729F084E080
:1006B00090E09F838E8378C090911E018A81981765
:1006C00041F48B818F3F29F488E090E09F838E83F3
:1006D0006BC090911E018A81981729F483E090E005
:1006E0009F838E8361C082E090E09F838E835CC095
:1006F00090911E018981981729F085E090E09F83F1
:100700008E8352C090911E018981981741F48C818B
:100710008F3F29F489E090E09F838E831CC09091E5
:100720001E018981981741F48D818F3F29F48AE059
:1007300090E09F838E830FC090911E01898198174E
:1007400029F482E090E09F838E832EC083E090E0C6
:100750009F838E8329C028C085E090E09F838E838D
:1007600023C080913501833018F41F821E821CC083
:100770008BE090E09F838E8317C080913601833099
:1007800028F481E090E09F838E830EC08BE090E0A0
:100790009F838E8309C08BE090E09F838E8304C08B
:1007A0001F821E8201C000008E819F81092E000CD5
:1007B000AA0BBB0B40E050E02BE030E0841B950B14
:1007C0002817390708F49EC08E5A9F4FFC010C94DD
:1007D000140780E480931E0180913301823068F019
:1007E00080913301882F90E0895E9E4FFC018081CB
:1007F00080931D011092330188C080913301882FAE
:1008000090E0895E9E4FFC01808180931D01809164
:1008100033018F5F8093330178C082E080931E01A3
:1008200080913401823068F080913401882F90E00B
:10083000865E9E4FFC01808180931D0110923401E1
:1008400064C080913401882F90E0865E9E4FFC0149
:10085000808180931D01809134018F5F80933401EA
:1008600054C080911D018695805880931D01809110
:100870001E01869580931E0148C080911D01880F3E
:100880008F5F80931D0180911E01869580931E01CC
:100890003CC080911E01880F80931E0180911D0134
:1008A000880F8F5F80931D0130C080911E01880FDB
:1008B00080931E0180911D018695805880931D01B3
:1008C00024C080911E01869580931E011EC08091D8
:1008D00035018F5F809335018FE080931E01109268
:1008E0001D01809136018F5F8093360180EF8093E8
:1008F0001E0110921D0109C08FEF80931E011092FE
:100900001D0103C0000001C0000080911E01809302
:100910003C0180911D0180933D018E819F8127962E
:100920000FB6F894DEBF0FBECDBFDF91CF91089513
:10093000CF93DF93CDB7DEB728970FB6F894DEBF1D
:100940000FBECDBF98878F8380913C0189838091B2
:100950003A018A83809131018B8380913D018C83A0
:1009600080913B018D83809132018E838F819885A8
:10097000009719F0019731F00AC081E090E0988764
:100980008F8308C081E090E098878F8303C018862A
:100990001F8200008F819885019709F049C08091DE
:1009A0003701823008F188E290E020913701222F50
:1009B00030E0AE014F5F5F4F240F351FF9012081FA
:1009C000FC0120838BE290E020913701222F30E060
:1009D000AE014C5F5F4F240F351FF9012081FC01F0
:1009E00020831092370123C088E290E020913701E4
:1009F000222F30E0AE014F5F5F4F240F351FF9010A
:100A00002081FC0120838BE290E020913701222F8E
:100A100030E0AE014C5F5F4F240F351FF90120819C
:100A2000FC012083809137018F5F809337010000A4
:100A30008F81988528960FB6F894DEBF0FBECDBF84
:100A4000DF91CF910895CF93DF9300D000D0CDB741
:100A5000DEB79C838B838091350189838091360139
:100A60008A838B819C81892B19F41C821B8203C091
:100A70001C821B8200008B819C81892B09F004C0A1
:100A800089818093380100008B819C810F900F90A9
:100A90000F900F90DF91CF9108950F931F93CF93F5
:100AA000DF93CDB7DEB72F970FB6F894DEBF0FBE3A
:100AB000CDBF81E290E0FC01108287E290E02FEF51
:100AC000FC0120838AE290E02FEFFC01208384E286
:100AD00090E02FEFFC01208382E290E02FEFFC01F9
:100AE000208385E290E02FEFFC01208388E290E0F4
:100AF000FC0110828BE290E0FC0110828AE0EFE1C1
:100B0000F1E0DE01169601900D928A95E1F785E0FD
:100B100090E09C838B838FEF8D838D81082E000C5A
:100B2000990B90933F0180933E0184E690E0A0E012
:100B3000B0E08093400190934101A0934201B093B3
:100B400043018091400190914101A0914201B091F7
:100B500043018093440190934501A0934601B093D3
:100B6000470186E891E090934901809348018D8187
:100B7000082E000C990B90934B0180934A0184E658
:100B800090E0A0E0B0E080934C0190934D01A093E1
:100B90004E01B0934F0180914C0190914D01A09175
:100BA0004E01B0914F018093500190935101A09359
:100BB0005201B093530181E192E0909355018093EB
:100BC00054018D81082E000C990B9093570180934E
:100BD000560186E990E0A0E0B0E080935801909340
:100BE0005901A0935A01B0935B01809158019091F3
:100BF0005901A0915A01B0915B0180935C019093DF
:100C00005D01A0935E01B0935F018CE892E0909348
:100C10006101809360018D81082E000C990B9093E7
:100C200063018093620181E090E0A0E0B0E08093F6
:100C3000640190936501A0936601B0936701809170
:100C4000640190916501A0916601B0916701809364
:100C5000680190936901A0936A01B0936B0188E9E0
:100C600094E090936D0180936C018D81082E000CAF
:100C7000990B90936F0180936E0181E090E0A0E06A
:100C8000B0E08093700190937101A0937201B093D2
:100C900073018091640190916501A0916601B0910A
:100CA00067018093740190937501A0937601B093CE
:100CB000770183E295E0909379018093780161E078
:100CC00070E080E090E00E9458010E94A8001A8223
:100CD00019829AC089819A81880F991F9E012F5F7E
:100CE0003F4F820F931F0596FC0180819181FC018B
:100CF000268137814085518589819A81880F991F86
:100D0000BE016F5F7F4F860F971F0596FC018081A4
:100D10009181FC0182819381A481B58128173907D3
:100D20004A075B0709F044C089819A81880F991F9F
:100D30009E012F5F3F4F820F931F0596FC0100819C
:100D4000118189819A81880F991F9E012F5F3F4FE2
:100D5000820F931F0596FC0180819181FC01228501
:100D6000338589819A81880F991FAE014F5F5F4F4C
:100D7000840F951F0596FC0180819181FC01808183
:100D80009181F9010995F8019183808389819A8184
:100D9000880F991F9E012F5F3F4F820F931F05966B
:100DA000FC0180819181FC011682178210861186D8
:100DB00089819A81880F991F9E012F5F3F4F820F73
:100DC000931F0596FC012081318189819A81880FCA
:100DD000991FAE014F5F5F4F840F951F0596FC0171
:100DE00080819181FC0186819781A085B1850196E2
:100DF000A11DB11DF90186839783A087B1878981E1
:100E00009A8101969A83898329813A818B819C8179
:100E10002817390708F45ECF000080912A01882343
:100E2000E1F310922A0153CFEE0FFF1F0024001CA4
:0E0E30000BBE0790F691E02D0994F894FFCFC9
:100E3E0000000002000000007F0000000000010022
:100E4E000000F780E301C7EFF7FBEFF7FBEF403E43
:0A0E5E00014A01560162016E010015
:00000001FF
