:100000000C9456000C9475000C9475000C947500BB
:100010000C9475000C9475000C9475000C9475008C
:100020000C9475000C9475000C9475000C9475007C
:100030000C9475000C94EE000C9475000C947500F3
:100040000C9475000C9475000C9475000C9475005C
:100050000C9475000C9475000C9475000C9475004C
:100060000C9475000C9475000C9475000C9475003C
:100070000C9475000C9475000C9475000C9475002C
:100080000C9475000C9475000C947500A402A902E0
:10009000CE02F8021E03F3024403490364036B0318
:1000A000830377038F03A203A2039B0311241FBEC4
:1000B000CFEFD0E4DEBFCDBF11E0A0E0B1E0EEEBCA
:1000C000FBE000E00BBF02C007900D92A032B10729
:1000D000D9F721E0A0E2B1E001C01D92AD35B20731
:1000E000E1F70E9441040C94DD050C940000CF93CD
:1000F000DF9300D01F92CDB7DEB789837B836A83FD
:1001000089818A3031F48A819B81BC018DE00E9413
:10011000770080EC90E0FC018081882F90E0807275
:100120009927892BB1F386EC90E02981FC0120838B
:1001300080E090E00F900F900F90DF91CF910895A5
:10014000CF93DF93CDB7DEB781E890E02BE0FC01E1
:10015000208388E890E02DE730E0FC0131832083A4
:100160008FE690E022E0FC01208384E890E0FC012F
:100170001182108280910E0190910F01A0911001C7
:10018000B09111018093210190932201A09323014A
:10019000B09324018FE590E02FE530E0F901208154
:1001A0002068FC0120830000DF91CF910895CF9358
:1001B000DF93CDB7DEB781E890E0FC01108200004C
:1001C000DF91CF910895CF93DF93CDB7DEB781E074
:1001D000809320010000DF91CF9108951F920F922C
:1001E00000905F000F92112400905B000F922F93FC
:1001F0003F934F935F936F937F938F939F93AF93AF
:10020000BF93EF93FF93CF93DF93CDB7DEB780918A
:10021000210190912201A0912301B0912401019725
:10022000A109B1098093210190932201A093230198
:10023000B09324018091210190912201A09123018A
:10024000B0912401892B8A2B8B2B91F40E94E3001F
:1002500080910E0190910F01A0911001B0911101B8
:100260008093210190932201A0932301B093240154
:100270000000DF91CF91FF91EF91BF91AF919F91DE
:100280008F917F916F915F914F913F912F910F903F
:1002900000925B000F9000925F000F901F901895E6
:1002A000CF93DF9300D000D0CDB7DEB769837A83D8
:1002B0008B839C8389819A81AB81BC8180930E0161
:1002C00090930F01A0931001B093110180910E0142
:1002D00090910F01A0911001B09111018093210123
:1002E00090932201A0932301B093240100000F906A
:1002F0000F900F900F90DF91CF910895CF93DF93E0
:1003000000D0CDB7DEB79A83898380E290E0FC010C
:10031000808180958093250189819A818130910522
:10032000D1F082309105D1F0892BD9F4809125014B
:10033000813029F481E090E09A83898315C080910F
:100340002501823029F482E090E09A8389830CC0F1
:100350001A82198209C01A82198206C01A82198269
:1003600003C01A821982000089819A818130910527
:10037000C9F08230910519F0892B39F12BC0809199
:1003800013018F3039F080911301880F8F5F8093B4
:1003900013011DC0809113018F30C9F48FE0809349
:1003A000130115C080911301803F39F08091130132
:1003B00086958058809313010CC080911301803F73
:1003C00041F480EF8093130104C0000003C00000DB
:1003D00001C00000809112018093260180911301D9
:1003E0008093270189819A810F900F90DF91CF919F
:1003F0000895CF93DF9300D0CDB7DEB79A8389837A
:1004000080E290E0FC0180818095809325018981C4
:100410009A8181309105D1F082309105D1F0892BFC
:10042000D9F480912501843029F481E090E09A8309
:10043000898315C080912501883029F482E090E0FD
:100440009A8389830CC01A82198209C01A82198280
:1004500006C01A82198203C01A821982000089819B
:100460009A8181309105C9F08230910519F0892B6C
:1004700039F12BC0809115018F3039F08091150131
:10048000880F8F5F809315011DC0809115018F30FB
:10049000C9F48FE08093150115C080911501803F4C
:1004A00039F08091150186958058809315010CC014
:1004B00080911501803F41F480EF8093150104C0C5
:1004C000000003C0000001C000008091140180936F
:1004D00029018091150180932A0189819A810F90C9
:1004E0000F90DF91CF910895CF93DF9300D000D08C
:1004F00000D0CDB7DEB79E838D838091260189839E
:10050000809129018A839091160180912A01892B7B
:100510008B839091160180912701892B8C838D818B
:100520009E81092E000CAA0BBB0B40E050E027E097
:1005300030E0841B950B2817390708F4ADC08A5B9F
:100540009F4FFC010C94D40581E090E09E838D8345
:10055000A6C0909117018A81981741F48B818F3F33
:1005600029F487E090E09E838D8399C090911701D4
:100570008A81981729F482E090E09E838D838FC052
:10058000809116018E3F29F485E090E09E838D8353
:1005900086C081E090E09E838D8381C09091170199
:1005A0008981981741F48C818F3F29F487E090E08E
:1005B0009E838D8374C0909117018981981729F4C7
:1005C00081E090E09E838D836AC0809116018F3711
:1005D00029F486E090E09E838D8361C082E090E004
:1005E0009E838D835CC083E090E09E838D8357C0A3
:1005F000909117018A81981729F083E090E09E83FB
:100600008D834DC0909117018A81981741F48B8199
:100610008F3F29F487E090E09E838D8340C09091C6
:1006200017018A81981729F482E090E09E838D83D8
:1006300036C081E090E09E838D8331C09091170198
:100640008981981729F084E090E09E838D8327C0EC
:10065000909117018981981741F48C818F3F29F47B
:1006600087E090E09E838D831AC090911701898165
:10067000981729F481E090E09E838D8310C082E07A
:1006800090E09E838D830BC084E090E09E838D83F9
:1006900006C01E821D8203C01E821D8200008D8145
:1006A0009E81092E000CAA0BBB0B40E050E027E016
:1006B00030E0841B950B2817390708F441C0825B92
:1006C0009F4FFC010C94D40580E4809317018FEEBA
:1006D0008093160138C080911601869580588093CA
:1006E0001601809117018695809317012CC0809187
:1006F0001601880F8F5F80931601809117018695F0
:100700008093170120C080911701880F80931701F3
:1007100080911601880F8F5F8093160114C080911D
:100720001701880F809317018091160186958058D4
:100730008093160108C08FEF809317011092160165
:10074000000001C000008091170180932B0180916F
:10075000160180932C018D819E8126960FB6F89408
:10076000DEBF0FBECDBFDF91CF910895CF93DF9352
:10077000CDB7DEB728970FB6F894DEBF0FBECDBF5A
:1007800098878F8380912B018983809129018A83A7
:10079000809126018B8380912C018C8380912A018A
:1007A0008D83809127018E838F819885009719F022
:1007B000019731F00AC081E090E098878F8308C0EC
:1007C00081E090E098878F8303C018861F82000025
:1007D0008F819885019709F049C080912801823066
:1007E00008F188E290E020912801222F30E0AE014C
:1007F0004F5F5F4F240F351FF9012081FC012083DB
:100800008BE290E020912801222F30E0AE014C5F76
:100810005F4F240F351FF9012081FC0120831092C6
:10082000280123C088E290E020912801222F30E0A7
:10083000AE014F5F5F4F240F351FF9012081FC018E
:1008400020838BE290E020912801222F30E0AE013E
:100850004C5F5F4F240F351FF9012081FC0120837D
:10086000809128018F5F8093280100008F819885F7
:1008700028960FB6F894DEBF0FBECDBFDF91CF91A3
:1008800008950F931F93CF93DF93CDB7DEB72D97C6
:100890000FB6F894DEBF0FBECDBF81E290E0FC0141
:1008A000108287E290E02FEFFC0120838AE290E043
:1008B0002FEFFC01208382E290E02FEFFC012083E8
:1008C00088E290E0FC0110828BE290E0FC01108253
:1008D00088E0E8E1F1E0DE01169601900D928A953C
:1008E000E1F784E090E09C838B838FEF8D838D8193
:1008F000082E000C990B90932E0180932D0184E615
:1009000090E0A0E0B0E080932F0190933001A0939D
:100910003101B093320180912F0190913001A0916B
:100920003101B09132018093330190933401A0934F
:100930003501B09336018EE791E0909338018093B2
:1009400037018D81082E000C990B90933A0180930A
:10095000390184E690E0A0E0B0E080933B01909301
:100960003C01A0933D01B0933E0180913B019091E9
:100970003C01A0913D01B0913E0180933F019093D5
:100980004001A0934101B093420189EF91E090931F
:100990004401809343018D81082E000C990B9093A4
:1009A00046018093450186E990E0A0E0B0E08093A5
:1009B000470190934801A0934901B0934A01809167
:1009C000470190914801A0914901B0914A0180935B
:1009D0004B0190934C01A0934D01B0934E0184E7DD
:1009E00092E09093500180934F018D81082E000C6E
:1009F000990B909352018093510181E090E0A0E027
:100A0000B0E08093530190935401A0935501B093AB
:100A100056018091530190915401A0915501B091DC
:100A200056018093570190935801A0935901B093B8
:100A30005A0186EB93E090935C0180935B0161E047
:100A400070E080E090E00E9450010E94A0001A82B5
:100A500019829AC089819A81880F991F9E012F5F00
:100A60003F4F820F931F0596FC0180819181FC010D
:100A7000268137814085518589819A81880F991F08
:100A8000BE016F5F7F4F860F971F0596FC01808127
:100A90009181FC0182819381A481B5812817390756
:100AA0004A075B0709F044C089819A81880F991F22
:100AB0009E012F5F3F4F820F931F0596FC0100811F
:100AC000118189819A81880F991F9E012F5F3F4F65
:100AD000820F931F0596FC0180819181FC01228584
:100AE000338589819A81880F991FAE014F5F5F4FCF
:100AF000840F951F0596FC0180819181FC01808106
:100B00009181F9010995F8019183808389819A8106
:100B1000880F991F9E012F5F3F4F820F931F0596ED
:100B2000FC0180819181FC0116821782108611865A
:100B300089819A81880F991F9E012F5F3F4F820FF5
:100B4000931F0596FC012081318189819A81880F4C
:100B5000991FAE014F5F5F4F840F951F0596FC01F3
:100B600080819181FC0186819781A085B185019664
:100B7000A11DB11DF90186839783A087B187898163
:100B80009A8101969A83898329813A818B819C81FC
:100B90002817390708F45ECF0000809120018823D0
:100BA000E1F31092200153CFEE0FFF1F0024001C31
:0E0BB0000BBE0790F691E02D0994F894FFCF4C
:100BBE0000000002000000007700000000000100AD
:100BCE00000080C301C3EF402D01390145015101E1
:00000001FF
