:100000000C9446000C9465000C9465000C946500FB
:100010000C9465000C9465000C9465000C946500CC
:100020000C9465000C9465000C9465000C946500BC
:100030000C9465000C94DE000C9465000C94650033
:100040000C9465000C9465000C9465000C9465009C
:100050000C9465000C9465000C9465000C9465008C
:100060000C9465000C9465000C9465000C9465007C
:100070000C9465000C9465000C9465000C9465006C
:100080000C9465000C9465000C94650011241FBE4F
:10009000CFEFD0E4DEBFCDBF11E0A0E0B1E0E8E0FB
:1000A000FBE000E00BBF02C007900D92A032B10749
:1000B000D9F721E0A0E2B1E001C01D92AD35B20751
:1000C000E1F70E94EF030C9482050C940000CF939B
:1000D000DF9300D01F92CDB7DEB789837B836A831D
:1000E00089818A3031F48A819B81BC018DE00E9434
:1000F000670080EC90E0FC018081882F90E08072A6
:100100009927892BB1F386EC90E02981FC012083AB
:1001100080E090E00F900F900F90DF91CF910895C5
:10012000CF93DF93CDB7DEB781E890E02BE0FC0101
:10013000208388E890E02DE730E0FC0131832083C4
:100140008FE690E022E0FC01208384E890E0FC014F
:100150001182108280910E0190910F01A0911001E7
:10016000B09111018093210190932201A09323016A
:10017000B09324018FE590E02FE530E0F901208174
:100180002068FC0120830000DF91CF910895CF9378
:10019000DF93CDB7DEB781E890E0FC01108200006C
:1001A000DF91CF910895CF93DF93CDB7DEB781E094
:1001B000809320010000DF91CF9108951F920F924C
:1001C00000905F000F92112400905B000F922F931C
:1001D0003F934F935F936F937F938F939F93AF93CF
:1001E000BF93EF93FF93CF93DF93CDB7DEB78091AB
:1001F000210190912201A0912301B0912401019746
:10020000A109B1098093210190932201A0932301B8
:10021000B09324018091210190912201A0912301AA
:10022000B0912401892B8A2B8B2B91F40E94D3004F
:1002300080910E0190910F01A0911001B0911101D8
:100240008093210190932201A0932301B093240174
:100250000000DF91CF91FF91EF91BF91AF919F91FE
:100260008F917F916F915F914F913F912F910F905F
:1002700000925B000F9000925F000F901F90189506
:10028000CF93DF9300D000D0CDB7DEB769837A83F8
:100290008B839C8389819A81AB81BC8180930E0181
:1002A00090930F01A0931001B093110180910E0162
:1002B00090910F01A0911001B09111018093210143
:1002C00090932201A0932301B093240100000F908A
:1002D0000F900F900F90DF91CF910895CF93DF9300
:1002E00000D0CDB7DEB79A83898380E290E0FC012D
:1002F000808180958093250189819A818130910543
:10030000D1F082309105D1F0892BD9F4809125016B
:10031000813029F481E090E09A83898315C080912F
:100320002501823029F482E090E09A8389830CC011
:100330001A82198209C01A82198206C01A82198289
:1003400003C01A821982000089819A818130910547
:10035000C9F08230910519F0892B39F12BC08091B9
:1003600013018F3039F080911301880F8F5F8093D4
:1003700013011DC0809113018F30C9F48FE0809369
:10038000130115C080911301803F39F08091130152
:1003900086958058809313010CC080911301803F93
:1003A00041F480EF8093130104C0000003C00000FB
:1003B00001C00000809112018093260180911301F9
:1003C0008093270189819A810F900F90DF91CF91BF
:1003D0000895CF93DF9300D0CDB7DEB79A8389839A
:1003E00080E290E0FC0180818095809325018981E5
:1003F0009A8181309105D1F082309105D1F0892B1D
:10040000D9F480912501843029F481E090E09A8329
:10041000898315C080912501883029F482E090E01D
:100420009A8389830CC01A82198209C01A821982A0
:1004300006C01A82198203C01A82198200008981BB
:100440009A8181309105C9F08230910519F0892B8C
:1004500039F12BC0809115018F3039F08091150151
:10046000880F8F5F809315011DC0809115018F301B
:10047000C9F48FE08093150115C080911501803F6C
:1004800039F08091150186958058809315010CC034
:1004900080911501803F41F480EF8093150104C0E5
:1004A000000003C0000001C000008091140180938F
:1004B00029018091150180932A0189819A810F90E9
:1004C0000F90DF91CF910895CF93DF9300D000D0AC
:1004D00000D0CDB7DEB79E838D83809126018983BE
:1004E000809129018A839091160180912A01892B9C
:1004F0008B839091160180912701892B8C838D81AC
:100500009E818230910509F43EC0833091052CF420
:10051000009779F0019791F07FC08430910509F43C
:100520004EC0843091050CF44FC0059709F471C09A
:1005300073C081E090E09E838D8371C0909117011C
:100540008A81981741F48B818F3F29F485E090E0F0
:100550009E838D8364C0909117018A81981729F436
:1005600082E090E09E838D835AC080911601813095
:1005700029F484E090E09E838D8351C081E090E077
:100580009E838D834CC0909117018981981741F407
:100590008C818F3F29F485E090E09E838D833FC05E
:1005A000909117018981981729F481E090E09E834A
:1005B0008D8335C082E090E09E838D8330C085E0DE
:1005C00090E09E838D832BC0909117018A819817AC
:1005D00041F48B818F3F29F485E090E09E838D83E9
:1005E0001EC0909117018A81981729F482E090E04B
:1005F0009E838D8314C080911601813029F484E09C
:1006000090E09E838D830BC081E090E09E838D837C
:1006100006C01E821D8203C01E821D8200008D81C5
:100620009E818230910581F1833091052CF40097F1
:1006300061F0019789F035C08430910589F18430EB
:100640009105B4F0059731F12CC080E48093170137
:100650008FEE8093160125C08091160186958058F3
:10066000809316018091170186958093170119C018
:100670008091160186958093160180911701880F4D
:100680008150809317010DC080911701880F8093CE
:10069000170107C0109217018FEF8093160101C058
:1006A00000008091170180932B01809116018093A7
:1006B0002C018D819E8126960FB6F894DEBF0FBE69
:1006C000CDBFDF91CF910895CF93DF93CDB7DEB744
:1006D00028970FB6F894DEBF0FBECDBF98878F83E3
:1006E00080912B018983809129018A838091260141
:1006F0008B8380912C018C8380912A018D83809142
:1007000027018E838F819885009719F0019731F02A
:100710000AC081E090E098878F8308C081E090E074
:1007200098878F8303C018861F8200008F81988569
:10073000019709F049C080912801823008F188E2D0
:1007400090E020912801222F30E0AE014F5F5F4FF3
:10075000240F351FF9012081FC0120838BE290E0FA
:1007600020912801222F30E0AE014C5F5F4F240F13
:10077000351FF9012081FC0120831092280123C03C
:1007800088E290E020912801222F30E0AE014F5FF7
:100790005F4F240F351FF9012081FC0120838BE27C
:1007A00090E020912801222F30E0AE014C5F5F4F96
:1007B000240F351FF9012081FC012083809128013D
:1007C0008F5F8093280100008F81988528960FB64F
:1007D000F894DEBF0FBECDBFDF91CF9108950F9388
:1007E0001F93CF93DF93CDB7DEB72D970FB6F89455
:1007F000DEBF0FBECDBF81E290E0FC01108287E238
:1008000090E02FEFFC0120838AE290E02FEFFC01C3
:10081000208382E290E02FEFFC01208388E290E0C9
:10082000FC0110828BE290E0FC01108288E0E8E19C
:10083000F1E0DE01169601900D928A95E1F784E0D1
:1008400090E09C838B838FEF8D838D81082E000C2D
:10085000990B90932E0180932D0184E690E0A0E007
:10086000B0E080932F0190933001A0933101B093B9
:10087000320180912F0190913001A0913101B0910E
:1008800032018093330190933401A0933501B093EA
:1008900036018EE691E090933801809337018D8187
:1008A000082E000C990B90933A018093390184E64D
:1008B00090E0A0E0B0E080933B0190933C01A093D6
:1008C0003D01B0933E0180913B0190913C01A0918C
:1008D0003D01B0913E0180933F0190934001A09370
:1008E0004101B093420189EE91E0909344018093DD
:1008F00043018D81082E000C990B90934601809343
:10090000450186E990E0A0E0B0E080934701909334
:100910004801A0934901B0934A0180914701909109
:100920004801A0914901B0914A0180934B019093F5
:100930004C01A0934D01B0934E0184E692E0909358
:10094000500180934F018D81082E000C990B9093DC
:1009500052018093510181E090E0A0E0B0E08093EB
:10096000530190935401A0935501B0935601809187
:10097000530190915401A0915501B091560180937B
:10098000570190935801A0935901B0935A0184E6FE
:1009900093E090935C0180935B0161E070E080E004
:1009A00090E00E9440010E9490001A8219829AC031
:1009B00089819A81880F991F9E012F5F3F4F820F77
:1009C000931F0596FC0180819181FC01268137816E
:1009D0004085518589819A81880F991FBE016F5F7B
:1009E0007F4F860F971F0596FC0180819181FC0146
:1009F00082819381A481B581281739074A075B0753
:100A000009F044C089819A81880F991F9E012F5F48
:100A10003F4F820F931F0596FC0100811181898150
:100A20009A81880F991F9E012F5F3F4F820F931F5E
:100A30000596FC0180819181FC01228533858981A5
:100A40009A81880F991FAE014F5F5F4F840F951FEA
:100A50000596FC0180819181FC0180819181F901E1
:100A60000995F8019183808389819A81880F991F64
:100A70009E012F5F3F4F820F931F0596FC018081DF
:100A80009181FC01168217821086118689819A81D4
:100A9000880F991F9E012F5F3F4F820F931F05966E
:100AA000FC012081318189819A81880F991FAE01D3
:100AB0004F5F5F4F840F951F0596FC0180819181E8
:100AC000FC0186819781A085B1850196A11DB11D8C
:100AD000F90186839783A087B18789819A810196DE
:100AE0009A83898329813A818B819C8128173907D0
:100AF00008F45ECF0000809120018823E1F310927A
:080B0000200153CFF894FFCF50
:100B08000000000200000000670000000000010073
:100B1800000080C301C3EF402D0139014501510197
:00000001FF
