:100000000C9460000C947F000C947F000C947F0093
:100010000C947F000C947F000C947F000C947F0064
:100020000C947F000C947F000C947F000C947F0054
:100030000C947F000C94F8000C947F000C947F00CB
:100040000C947F000C947F000C947F000C947F0034
:100050000C947F000C947F000C947F000C947F0024
:100060000C947F000C947F000C947F000C947F0014
:100070000C947F000C947F000C947F000C947F0004
:100080000C947F000C947F000C947F00DF02E4024C
:10009000E9020E039F03D3039A0307040C04180418
:1000A00044036F03260446046A048E04A6049A04DB
:1000B000B204F404F404D604E104BE04CA04EC045B
:1000C00011241FBECFEFD0E4DEBFCDBF11E0A0E012
:1000D000B1E0EAE3FFE000E00BBF02C007900D9241
:1000E000AA32B107D9F721E0AAE2B1E001C01D921E
:1000F000AB37B207E1F70E94CB050C949B070C9439
:100100000000CF93DF9300D01F92CDB7DEB7898375
:100110007B836A8389818A3031F48A819B81BC0127
:100120008DE00E94810080EC90E0FC018081882FAE
:1001300090E080729927892BB1F386EC90E02981B9
:10014000FC01208380E090E00F900F900F90DF91F2
:10015000CF910895CF93DF93CDB7DEB781E890E0DC
:100160002BE0FC01208388E890E02DE730E0FC01E3
:10017000318320838FE690E022E0FC01208384E835
:1001800090E0FC011182108280910E0190910F018C
:10019000A0911001B091110180932B0190932C013B
:1001A000A0932D01B0932E018FE590E02FE530E074
:1001B000F90120812068FC0120830000DF91CF91AC
:1001C0000895CF93DF93CDB7DEB781E890E0FC01CF
:1001D00010820000DF91CF910895CF93DF93CDB7C8
:1001E000DEB781E080932A010000DF91CF9108956E
:1001F0001F920F9200905F000F92112400905B00FD
:100200000F922F933F934F935F936F937F938F93AF
:100210009F93AF93BF93EF93FF93CF93DF93CDB7AC
:10022000DEB780912B0190912C01A0912D01B0910E
:100230002E010197A109B10980932B0190932C0104
:10024000A0932D01B0932E0180912B0190912C0150
:10025000A0912D01B0912E01892B8A2B8B2B91F42B
:100260000E94ED0080910E0190910F01A09110016C
:10027000B091110180932B0190932C01A0932D013B
:10028000B0932E010000DF91CF91FF91EF91BF91CC
:10029000AF919F918F917F916F915F914F913F911E
:1002A0002F910F9000925B000F9000925F000F90D3
:1002B0001F901895CF93DF9300D000D0CDB7DEB755
:1002C00069837A838B839C8389819A81AB81BC818A
:1002D00080930E0190930F01A0931001B093110130
:1002E00080910E0190910F01A0911001B091110128
:1002F00080932B0190932C01A0932D01B0932E019C
:1003000000000F900F900F900F90DF91CF91089504
:10031000CF93DF9300D0CDB7DEB79A83898380E295
:1003200090E0FC018081809580932F0189819A81E2
:1003300081309105D1F082309105D1F0892BD9F42B
:1003400080912F01813029F481E090E09A838983A4
:1003500015C080912F01823029F482E090E09A83C9
:1003600089830CC01A82198209C01A82198206C0B8
:100370001A82198203C01A821982000089819A8127
:1003800081309105F9F08230910519F0892B99F1AE
:1003900037C0809114018F3169F080911401880F6A
:1003A0008F5F8093140180911201880F8F5F80937B
:1003B000120123C0809114018F31F9F48FE18093F1
:1003C00014011BC080911401883F69F080911401D1
:1003D00086958058809314018091120186958058EB
:1003E000809312010CC080911401883F41F488EF82
:1003F0008093140104C0000003C0000001C000008D
:100400008091130180933101809114018093320116
:10041000809112018093300189819A810F900F9011
:10042000DF91CF910895CF93DF9300D0CDB7DEB7A2
:100430009A83898380E290E0FC018081809580939B
:100440002F0189819A8181309105D1F08230910507
:10045000D1F0892BD9F480912F01843029F481E0E7
:1004600090E09A83898315C080912F01883029F408
:1004700082E090E09A8389830CC01A82198209C0B5
:100480001A82198206C01A82198203C01A8219823E
:10049000000089819A8181309105F9F082309105BF
:1004A00019F0892B99F137C0809117018F3169F0CC
:1004B00080911701880F8F5F80931701809115013C
:1004C000880F8F5F8093150123C0809117018F31B2
:1004D000F9F48FE1809317011BC080911701883FC9
:1004E00069F080911701869580588093170180915B
:1004F000150186958058809315010CC080911701D5
:10050000883F41F488EF8093170104C0000003C0C6
:10051000000001C000008091160180933B01809192
:10052000170180933C0180911501809333018981EB
:100530009A810F900F90DF91CF910895CF93DF9321
:10054000CDB7DEB728970FB6F894DEBF0FBECDBF8C
:1005500098878F8380913101898380913B018A83C1
:1005600090911E0180913C01892B8B8390911E01FB
:1005700080913201892B8C838091300180959091FC
:100580001E01892B8D8380913301809590911E01EE
:10059000892B8E838F819885092E000CAA0BBB0BAB
:1005A00040E050E02CE030E0841B950B2817390721
:1005B00008F451C18A5B9F4FFC010C94920782E0C2
:1005C00090E098878F834DC183E090E098878F8378
:1005D00048C190911F018A81981741F48B818F3F08
:1005E00029F488E090E098878F833BC190911F01A8
:1005F0008A81981729F483E090E098878F8331C12E
:1006000080911E018E3F29F486E090E098878F83C9
:1006100028C182E090E098878F8323C190911F01C9
:100620008981981741F48C818F3F29F489E090E00B
:1006300098878F8328C090911F018981981741F472
:100640008D818F3F29F48AE090E098878F831BC0CB
:1006500090911F018981981741F48D818F3F29F076
:1006600082E090E098878F830EC080911E018F37C3
:1006700029F487E090E098878F83F3C083E090E0CF
:1006800098878F83EEC0EDC090911F018A819817E3
:1006900041F48B818F3F29F488E090E098878F8325
:1006A000DDC090911F018A81981729F483E090E0C2
:1006B00098878F83D3C080911E018E3F29F486E0F6
:1006C00090E098878F83CAC090911F018A81981704
:1006D00009F4C4C08AE090E098878F83BFC09091EE
:1006E0001F018981981741F48C818F3F29F489E09B
:1006F00090E098878F83B4C090911F0189819817EB
:1007000029F482E090E098878F83AAC080911E012F
:100710008F3729F487E090E098878F83A1C090916C
:100720001F018981981709F49BC08BE090E098879E
:100730008F8396C084E090E098878F8392C09091D9
:100740001F018A81981729F084E090E098878F83B1
:1007500088C090911F018A81981741F48B818F3F47
:1007600029F488E090E098878F831CC090911F0146
:100770008A81981741F48E818F3F29F48BE090E0B5
:1007800098878F830FC090911F018A81981729F451
:1007900083E090E098878F8364C082E090E0988740
:1007A0008F835FC05EC090911F018981981729F0E7
:1007B00085E090E098878F8354C090911F018981D4
:1007C000981741F48C818F3F29F489E090E0988755
:1007D0008F831CC090911F018981981741F48D81EE
:1007E0008F3F29F48AE090E098878F830FC0909123
:1007F0001F018981981729F482E090E098878F8300
:1008000030C083E090E098878F832BC02AC085E0BA
:1008100090E098878F8325C080913601833018F44B
:1008200018861F821EC08CE090E098878F8319C0C5
:1008300080913701833028F481E090E098878F839E
:1008400010C08CE090E098878F830BC08CE090E024
:1008500098878F8306C018861F8203C0000001C0DE
:1008600000008F819885092E000CAA0BBB0B40E07D
:1008700050E02CE030E0841B950B2817390708F472
:10088000B1C08D5A9F4FFC010C94920780E4809375
:100890001F0180913401823068F080913401882FEB
:1008A00090E0885E9E4FFC01808180931E01109233
:1008B00034019BC080913401882F90E0885E9E4F68
:1008C000FC01808180931E01809134018F5F8093B1
:1008D00034018BC082E080931F018091350182300A
:1008E00068F080913501882F90E0855E9E4FFC0175
:1008F000808180931E011092350177C0809135016F
:10090000882F90E0855E9E4FFC01808180931E01C0
:10091000809135018F5F8093350167C080911E0102
:100920008695805880931E0180911F018695809343
:100930001F015BC080911E01880F8F5F80931E0195
:1009400080911F01869580931F014FC080911F01E8
:10095000880F80931F0180911E01880F8F5F809305
:100960001E0143C080911F01880F80931F01809159
:100970001E018695805880931E0137C080911F010B
:10098000869580931F0180911E01869580588093E3
:100990001E012BC080911F01880F80931F01809141
:1009A0001E01880F8F5F80931E011FC0809136014A
:1009B0008F5F809336018FE080931F0110921E019C
:1009C00014C0809137018F5F8093370180EF80934F
:1009D0001F0110921E0109C08FEF80931F0110921A
:1009E0001E0103C0000001C0000080911F01809320
:1009F0003D0180911E0180933E018F81988528964C
:100A00000FB6F894DEBF0FBECDBFDF91CF91089532
:100A1000CF93DF93CDB7DEB728970FB6F894DEBF3C
:100A20000FBECDBF98878F8380913D0189838091D0
:100A30003B018A83809131018B8380913E018C83BD
:100A400080913C018D83809132018E838F819885C6
:100A5000009719F0019731F00AC081E090E0988783
:100A60008F8308C081E090E098878F8303C0188649
:100A70001F8200008F819885019709F049C08091FD
:100A80003801823008F188E290E020913801222F6D
:100A900030E0AE014F5F5F4F240F351FF901208119
:100AA000FC0120838BE290E020913801222F30E07E
:100AB000AE014C5F5F4F240F351FF9012081FC010F
:100AC00020831092380123C088E290E02091380101
:100AD000222F30E0AE014F5F5F4F240F351FF90129
:100AE0002081FC0120838BE290E020913801222FAD
:100AF00030E0AE014C5F5F4F240F351FF9012081BC
:100B0000FC012083809138018F5F809338010000C1
:100B10008F81988528960FB6F894DEBF0FBECDBFA3
:100B2000DF91CF910895CF93DF9300D000D0CDB760
:100B3000DEB79C838B838091360189838091370156
:100B40008A838B819C81892B19F41C821B8203C0B0
:100B50001C821B8200008B819C81892B09F009C0BB
:100B60008981809339018A81880F880F80933A01A7
:100B7000000085E290E03091390120913A01232B69
:100B8000FC0120838B819C810F900F900F900F9020
:100B9000DF91CF9108950F931F93CF93DF93CDB73C
:100BA000DEB72F970FB6F894DEBF0FBECDBF81E240
:100BB00090E0FC01108287E290E02FEFFC0120839F
:100BC0008AE290E02FEFFC01208384E290E02FEF97
:100BD000FC01208382E290E02FEFFC01208385E27C
:100BE00090E02FEFFC01208388E290E0FC0110826E
:100BF0008BE290E0FC0110828AE0E0E2F1E0DE01AD
:100C0000169601900D928A95E1F785E090E09C831D
:100C10008B838FEF8D838D81082E000C990B909321
:100C2000400180933F0184E690E0A0E0B0E0809333
:100C3000410190934201A0934301B09344018091FC
:100C4000410190914201A0914301B09144018093F0
:100C5000450190934601A0934701B093480188E86D
:100C600091E090934A01809349018D81082E000CF8
:100C7000990B90934C0180934B0184E690E0A0E0A7
:100C8000B0E080934D0190934E01A0934F01B0933B
:100C9000500180914D0190914E01A0914F01B09172
:100CA00050018093510190935201A0935301B0934E
:100CB000540183E192E090935601809355018D8118
:100CC000082E000C990B909358018093570186E9E8
:100CD00090E0A0E0B0E08093590190935A01A09376
:100CE0005B01B0935C018091590190915A01A091F0
:100CF0005B01B0915C0180935D0190935E01A093D4
:100D00005F01B09360018EE992E09093620180935D
:100D100061018D81082E000C990B909364018093E2
:100D2000630181E090E0A0E0B0E0809365019093E2
:100D30006601A0936701B09368018091650190916D
:100D40006601A0916701B091680180936901909359
:100D50006A01A0936B01B0936C0188E095E09093D9
:100D60006E0180936D018D81082E000C990B90937C
:100D7000700180936F0181E090E0A0E0B0E080938B
:100D8000710190937201A0937301B09374018091EB
:100D9000650190916601A0916701B091680180930F
:100DA000750190937601A0937701B093780183E960
:100DB00095E090937A018093790161E070E080E0A2
:100DC00090E00E945A010E94AA001A8219829AC0D9
:100DD00089819A81880F991F9E012F5F3F4F820F53
:100DE000931F0596FC0180819181FC01268137814A
:100DF0004085518589819A81880F991FBE016F5F57
:100E00007F4F860F971F0596FC0180819181FC0121
:100E100082819381A481B581281739074A075B072E
:100E200009F044C089819A81880F991F9E012F5F24
:100E30003F4F820F931F0596FC010081118189812C
:100E40009A81880F991F9E012F5F3F4F820F931F3A
:100E50000596FC0180819181FC0122853385898181
:100E60009A81880F991FAE014F5F5F4F840F951FC6
:100E70000596FC0180819181FC0180819181F901BD
:100E80000995F8019183808389819A81880F991F40
:100E90009E012F5F3F4F820F931F0596FC018081BB
:100EA0009181FC01168217821086118689819A81B0
:100EB000880F991F9E012F5F3F4F820F931F05964A
:100EC000FC012081318189819A81880F991FAE01AF
:100ED0004F5F5F4F840F951F0596FC0180819181C4
:100EE000FC0186819781A085B1850196A11DB11D68
:100EF000F90186839783A087B18789819A810196BA
:100F00009A83898329813A818B819C8128173907AB
:100F100008F45ECF000080912A018823E1F310924B
:100F20002A0153CFEE0FFF1F0024001C0BBE0790B9
:0A0F3000F691E02D0994F894FFCF2C
:100F3A000000000200000000810000000000010023
:100F4A000000F780E3EF01C7EFF7FBEFF7FBEF4095
:0A0F5A003F014B01570163016F01D5
:00000001FF
