:100000000C9468000C9487000C9487000C94870073
:100010000C9487000C9487000C9487000C94870044
:100020000C9487000C9487000C9487000C94870034
:100030000C9487000C9400010C9487000C948700AA
:100040000C9487000C9487000C9487000C94870014
:100050000C9487000C9487000C9487000C94870004
:100060000C9487000C9487000C9487000C948700F4
:100070000C9487000C9487000C9487000C948700E4
:100080000C9487000C9487000C94870007030C03E2
:1000900011033603C90310040B044D04BF03C4034A
:1000A000520457045C0468046903940376049804BA
:1000B000BC04E004F804EC040405460546054605C6
:1000C0004605460546052805330510051C053E0571
:1000D00011241FBECFEFD0E4DEBFCDBF11E0A0E002
:1000E000B1E0E8E5F1E100E00BBF02C007900D923E
:1000F000AE32B107D9F721E0AEE2B1E001C01D9206
:10010000A038B207E1F70E941D060C94AA080C94CF
:100110000000CF93DF9300D01F92CDB7DEB7898365
:100120007B836A8389818A3031F48A819B81BC0117
:100130008DE00E94890080EC90E0FC018081882F96
:1001400090E080729927892BB1F386EC90E02981A9
:10015000FC01208380E090E00F900F900F90DF91E2
:10016000CF910895CF93DF93CDB7DEB781E890E0CC
:100170002BE0FC01208388E890E02DE730E0FC01D3
:10018000318320838FE690E022E0FC01208384E825
:1001900090E0FC011182108280910E0190910F017C
:1001A000A0911001B091110180932F019093300123
:1001B000A0933101B09332018FE590E02FE530E05C
:1001C000F90120812068FC0120830000DF91CF919C
:1001D0000895CF93DF93CDB7DEB781E890E0FC01BF
:1001E00010820000DF91CF910895CF93DF93CDB7B8
:1001F000DEB781E080932E010000DF91CF9108955A
:100200001F920F9200905F000F92112400905B00EC
:100210000F922F933F934F935F936F937F938F939F
:100220009F93AF93BF93EF93FF93CF93DF93CDB79C
:10023000DEB780912F0190913001A0913101B091F2
:1002400032010197A109B10980932F0190933001E8
:10025000A0933101B093320180912F019091300130
:10026000A0913101B0913201892B8A2B8B2B91F413
:100270000E94F50080910E0190910F01A091100154
:10028000B091110180932F0190933001A09331011F
:10029000B09332010000DF91CF91FF91EF91BF91B8
:1002A000AF919F918F917F916F915F914F913F910E
:1002B0002F910F9000925B000F9000925F000F90C3
:1002C0001F901895CF93DF9300D000D0CDB7DEB745
:1002D00069837A838B839C8389819A81AB81BC817A
:1002E00080930E0190930F01A0931001B093110120
:1002F00080910E0190910F01A0911001B091110118
:1003000080932F0190933001A0933101B09332017B
:1003100000000F900F900F900F90DF91CF910895F4
:10032000CF93DF9300D0CDB7DEB79A83898380E285
:1003300090E0FC01808180958370809333018981F6
:100340009A8181309105D1F082309105D1F0892BCD
:10035000D9F480913301813029F481E090E09A83CF
:10036000898315C080913301823029F482E090E0C6
:100370009A8389830CC01A82198209C01A82198251
:1003800006C01A82198203C01A821982000089816C
:100390009A8181309105F9F08230910519F0892B0D
:1003A00099F137C0809114018F3169F08091140167
:1003B000880F8F5F8093140180911201880F8F5FE7
:1003C0008093120123C0809114018F31F9F48FE1E1
:1003D000809314011BC080911401883F69F08091C3
:1003E000140186958058809314018091120186959E
:1003F0008058809312010CC080911401883F41F411
:1004000088EF8093140104C0000003C0000001C005
:100410000000809113018093350180911401809335
:100420003601809112018093340189819A810F9065
:100430000F90DF91CF910895CF93DF9300D000D03C
:10044000CDB7DEB79C838B838091400180933801C8
:100450008091340189830E943808817090789923B3
:1004600024F401978E6F9F6F01968A838B819C8104
:100470008130910559F18230910559F1892B61F54F
:1004800080913801833068F4809117019981891730
:1004900040F48A81813029F481E090E09C838B8351
:1004A00014C080913801833068F4809117019981DC
:1004B000981740F48A81813029F482E090E09C838F
:1004C0008B8303C01C821B820AC009C01C821B8252
:1004D00006C01C821B8203C01C821B8200008B8111
:1004E0009C8181309105F9F08230910519F0892BBA
:1004F00099F137C0809117018F3169F08091170110
:10050000880F8F5F8093170180911501880F8F5F8F
:100510008093150123C0809117018F31F9F48FE189
:10052000809317011BC080911701883F69F080916B
:100530001701869580588093170180911501869543
:100540008058809315010CC080911701883F41F4B9
:1005500088EF8093170104C0000003C0000001C0B1
:1005600000008091160180934101809117018093D2
:10057000420180911501809337018B819C810F90FE
:100580000F900F900F90DF91CF910895CF93DF934D
:10059000CDB7DEB728970FB6F894DEBF0FBECDBF3C
:1005A00098878F83809135018983809141018A8367
:1005B00090911E0180914201892B8B8390911E01A5
:1005C00080913601892B8C838091340180959091A4
:1005D0001E01892B8D8380913701809590911E019A
:1005E000892B8E838F819885092E000CAA0BBB0B5B
:1005F00040E050E020E130E0841B950B28173907DC
:1006000008F479C18A5B9F4FFC010C94E40782E0F7
:1006100090E098878F8377C183E090E098878F83FD
:1006200072C190911F018A81981741F48B818F3F8D
:1006300029F48CE090E098878F8365C190911F0129
:100640008A81981729F483E090E098878F835BC1B3
:1006500080911E018E3F29F488E090E098878F8377
:1006600052C182E090E098878F834DC190911F0125
:100670008981981741F48C818F3F29F48DE090E0B7
:1006800098878F8325C090911F018981981741F425
:100690008D818F3F29F48EE090E098878F8318C07A
:1006A00090911F018981981729F482E090E0988742
:1006B0008F8329C180911E018F3729F48AE090E051
:1006C00098878F8320C183E090E098878F831BC138
:1006D0001AC190911F018A81981741F48B818F3F35
:1006E00029F48CE090E098878F8308C190911F01D6
:1006F0008A81981729F483E090E098878F83FEC061
:1007000080911E018E3F29F488E090E098878F83C6
:10071000F5C090911F018A81981709F4EFC08EE00F
:1007200090E098878F83EAC090911F018981981784
:1007300041F48C818F3F29F48DE090E098878F837E
:10074000DFC090911F018981981729F482E090E021
:1007500098878F83D5C080911E018F3729F48AE056
:1007600090E098878F83CCC090911F018981981762
:1007700009F4C6C08FE090E098878F83C1C084E001
:1007800090E098878F83BFC087E090E098878F8341
:10079000BAC090911F018A81981749F080911E017B
:1007A0008F3729F48BE090E098878F8333C0909146
:1007B0001F018A81981729F084E090E098878F8341
:1007C000A2C090911F018A81981741F48B818F3FBD
:1007D00029F48CE090E098878F831CC090911F01D2
:1007E0008A81981741F48E818F3F29F48FE090E041
:1007F00098878F830FC090911F018A81981729F4E1
:1008000085E090E098878F837EC084E090E09887B1
:100810008F8379C078C082E090E098878F8373C01F
:1008200090911F018981981749F080911E018E3F98
:1008300029F489E090E098878F832EC090911F0162
:100840008981981729F085E090E098878F835AC0B6
:1008500090911F018981981741F48C818F3F29F471
:100860008DE090E098878F8317C090911F01898158
:10087000981741F48D818F3F29F48EE090E098879E
:100880008F830AC090911F0189819817D9F584E060
:1008900090E098878F8336C035C083E090E09887DA
:1008A0008F8331C085E090E098878F832CC086E0ED
:1008B00090E098878F8327C080913B01833018F4A4
:1008C00018861F8220C080E190E098878F831BC02C
:1008D00080913C01833028F481E090E098878F83F9
:1008E00012C080E190E098878F830DC080E190E096
:1008F00098878F8308C018861F8205C0000003C038
:10090000000001C000008F819885092E000CAA0B01
:10091000BB0B40E050E020E130E0841B950B281732
:10092000390708F4B1C0895A9F4FFC010C94E407C1
:1009300080E480931F0180913901823068F08091BA
:100940003901882F90E0885E9E4FFC018081809362
:100950001E01109239019BC080913901882F90E0CF
:10096000885E9E4FFC01808180931E018091390139
:100970008F5F809339018BC082E080931F0180914B
:100980003A01823068F080913A01882F90E0855ECC
:100990009E4FFC01808180931E0110923A0177C026
:1009A00080913A01882F90E0855E9E4FFC01808106
:1009B00080931E0180913A018F5F80933A0167C056
:1009C00080911E018695805880931E0180911F01A1
:1009D000869580931F015BC080911E01880F8F5FF9
:1009E00080931E0180911F01869580931F014FC047
:1009F00080911F01880F80931F0180911E01880F35
:100A00008F5F80931E0143C080911F01880F8093E8
:100A10001F0180911E018695805880931E0137C06A
:100A200080911F01869580931F0180911E018695FC
:100A3000805880931E012BC080911F01880F8093E6
:100A40001F0180911E01880F8F5F80931E011FC0C0
:100A500080913B018F5F80933B018FE080931F016A
:100A600010921E0114C080913C018F5F80933C0165
:100A700080EF80931F0110921E0109C08FEF8093B9
:100A80001F0110921E0103C0000001C000008091F0
:100A90001F018093400180911E01809343018F814B
:100AA000988528960FB6F894DEBF0FBECDBFDF91B4
:100AB000CF910895CF93DF93CDB7DEB728970FB6C8
:100AC000F894DEBF0FBECDBF98878F838091400121
:100AD0008983809141018A83809135018B83809144
:100AE00043018C83809142018D83809136018E83F6
:100AF0008F819885009719F0019731F00AC081E045
:100B000090E098878F8308C081E090E098878F837A
:100B100003C018861F8200008F819885019709F015
:100B200049C080913D01823008F188E290E0209137
:100B30003D01222F30E0AE014F5F5F4F240F351F84
:100B4000F9012081FC0120838BE290E020913D019E
:100B5000222F30E0AE014C5F5F4F240F351FF901AB
:100B60002081FC01208310923D0123C088E290E0A7
:100B700020913D01222F30E0AE014F5F5F4F240FE7
:100B8000351FF9012081FC0120838BE290E0209148
:100B90003D01222F30E0AE014C5F5F4F240F351F27
:100BA000F9012081FC01208380913D018F5F8093BA
:100BB0003D0100008F81988528960FB6F894DEBF1E
:100BC0000FBECDBFDF91CF910895CF93DF9300D0BB
:100BD00000D0CDB7DEB79C838B8380913B018983A6
:100BE00080913C018A838B819C81892B19F41C8222
:100BF0001B8203C01C821B8200008B819C81892B7D
:100C000009F009C0898180933E018A81880F880F8D
:100C100080933F01000085E290E030913E012091F9
:100C20003F01232BFC0120838B819C810F900F902F
:100C30000F900F90DF91CF9108950F931F93CF9353
:100C4000DF93CDB7DEB72F970FB6F894DEBF0FBE98
:100C5000CDBF81E290E0FC01108287E290E02FEFAF
:100C6000FC0120838AE290E02FEFFC01208384E2E4
:100C700090E02FEFFC01208382E290E02FEFFC0157
:100C8000208385E290E02FEFFC01208388E290E052
:100C9000FC0110828BE290E0FC0110828AE0E4E229
:100CA000F1E0DE01169601900D928A95E1F785E05C
:100CB00090E09C838B838FEF8D838D81082E000CB9
:100CC000990B909345018093440184E690E0A0E065
:100CD000B0E08093460190934701A0934801B09300
:100CE00049018091460190914701A0914801B0913E
:100CF000490180934A0190934B01A0934C01B0931A
:100D00004D0180E991E090934F0180934E018D81D8
:100D1000082E000C990B909351018093500184E6AA
:100D200090E0A0E0B0E08093520190935301A09333
:100D30005401B093550180915E0190915F01A091A3
:100D40006001B09161018093560190935701A09387
:100D50005801B09359018CE192E090935B0180932C
:100D60005A018D81082E000C990B90935D018093A0
:100D70005C0186E990E0A0E0B0E080935E01909392
:100D80005F01A0936001B093610180915201909145
:100D90005301A0915401B091550180936201909349
:100DA0006301A0936401B093650186EC92E0909397
:100DB0006701809366018D81082E000C990B90933A
:100DC00069018093680181E090E0A0E0B0E0809349
:100DD0006A0190936B01A0936C01B0936D018091B7
:100DE0006A0190916B01A0916C01B0916D018093AB
:100DF0006E0190936F01A0937001B09371018AE529
:100E000095E090937301809372018D81082E000C00
:100E1000990B909375018093740181E090E0A0E0BC
:100E2000B0E08093760190937701A0937801B0931E
:100E3000790180916A0190916B01A0916C01B09150
:100E40006D0180937A0190937B01A0937C01B09314
:100E50007D0185EE95E090937F0180937E0161E0B6
:100E600070E080E090E00E9462010E94B2001A826D
:100E700019829AC089819A81880F991F9E012F5FDC
:100E80003F4F820F931F0596FC0180819181FC01E9
:100E9000268137814085518589819A81880F991FE4
:100EA000BE016F5F7F4F860F971F0596FC01808103
:100EB0009181FC0182819381A481B5812817390732
:100EC0004A075B0709F044C089819A81880F991FFE
:100ED0009E012F5F3F4F820F931F0596FC010081FB
:100EE000118189819A81880F991F9E012F5F3F4F41
:100EF000820F931F0596FC0180819181FC01228560
:100F0000338589819A81880F991FAE014F5F5F4FAA
:100F1000840F951F0596FC0180819181FC018081E1
:100F20009181F9010995F8019183808389819A81E2
:100F3000880F991F9E012F5F3F4F820F931F0596C9
:100F4000FC0180819181FC01168217821086118636
:100F500089819A81880F991F9E012F5F3F4F820FD1
:100F6000931F0596FC012081318189819A81880F28
:100F7000991FAE014F5F5F4F840F951F0596FC01CF
:100F800080819181FC0186819781A085B185019640
:100F9000A11DB11DF90186839783A087B18789813F
:100FA0009A8101969A83898329813A818B819C81D8
:100FB0002817390708F45ECF000080912E0188239E
:100FC000E1F310922E0153CFEE0FFF1F0024001CFF
:100FD0000BBE0790F691E02D09948F929F92AF92ED
:100FE000BF92CF92DF92EF92FF92CF93DF93EC010B
:100FF000688179818A819B816115710581059105DF
:1010000021F464E279ED8BE597E02DE133EF41E0E7
:1010100050E00E94470849015A019B01AC01A7EA30
:10102000B1E40E9466086B017C01ACEEB4EFA5014F
:1010300094010E947408DC01CB018C0D9D1DAE1D36
:10104000BF1DB7FF03C00197A109B04888839983EA
:10105000AA83BB839F77DF91CF91FF90EF90DF90C2
:10106000CF90BF90AF909F908F9008950C94ED0714
:1010700080E291E00C94ED07A0E0B0E080932001C5
:1010800090932101A0932201B09323010895052E8E
:1010900097FB1EF400940E945E0857FD07D00E9443
:1010A000790807FC03D04EF40C945E0850954095E7
:1010B000309521953F4F4F4F5F4F08959095809504
:1010C000709561957F4F8F4F9F4F08950E949B08A9
:1010D000A59F900DB49F900DA49F800D911D11248C
:1010E0000895B7FF0C9466080E946608821B930B54
:1010F0000895A1E21A2EAA1BBB1BFD010DC0AA1F59
:10110000BB1FEE1FFF1FA217B307E407F50720F070
:10111000A21BB30BE40BF50B661F771F881F991FEB
:101120001A9469F760957095809590959B01AC0134
:10113000BD01CF010895A29FB001B39FC001A39F3D
:10114000700D811D1124911DB29F700D811D112400
:08115000911D0895F894FFCFF2
:1011580000000002000000008900000000000100FB
:101168000000F780E3EF01C7EFF7FBEFF7FBEF4075
:0E1178000100000044015C0150016801740197
:00000001FF
